:020000040800F2
:1000000000000120B945000855410008574100088B
:10001000594100085B4100085D41000800000000F4
:100020000000000000000000000000005F41000828
:1000300061410008000000006341000865410008BC
:100040000946000809460008094600080946000854
:100050000946000809460008094600080946000844
:100060000946000809460008094600080946000834
:100070000946000809460008094600080946000824
:100080000946000869410008094600080000000010
:100090000000000000000000000000000946000809
:1000A00009460008094600080946000809460008F4
:1000B00009460008094600080946000809460008E4
:1000C00009460008094600080946000809460008D4
:1000D000094600080946000809460008000000001B
:1000E000094600080946000809460008000000000B
:1000F00000000000000000000000000009460008A9
:1001000000000000094600080946000809460008EA
:1001100000000000000000000000000000000000DF
:10012000094600080946000875410008094600080C
:100130000946000800000000000000000000000068
:1001400000000000000000000000000081410008E5
:1001500009460008094600088D41000809460008C4
:1001600009460008094600080000000000000000E1
:10017000000000000000000000000000000000007F
:100180000000000009460008000000000000000018
:040190000946000814
:1001940010B5054C237833B9044B13B10448AFF3BD
:1001A40000800123237010BDCC010020000000005A
:1001B4003C48000808B5034B1BB103490348AFF39F
:1001C400008008BD00000000D00100203C48000869
:1001D400034613F8012B002AFBD1181A0138704783
:1001E40053B94AB9002908BF00281CBF4FF0FF319A
:1001F4004FF0FF3000F07AB9ADF1080C6DE904CE90
:1002040000F006F8DDF804E0DDE9022304B07047ED
:100214002DE9F0478C460D460446089E002B51D12B
:100224008A4217466DD9B2FA82FEBEF1000F0BD096
:10023400CEF1200C01FA0EF520FA0CFC02FA0EF7AE
:100244004CEA050C00FA0EF44FEA174A250CBCFBE5
:10025400FAF81FFA87F90AFB18CC45EA0C4508FBA3
:1002640009F3AB420AD9ED1908F1FF3280F023817A
:10027400AB4240F22081A8F102083D44ED1AA4B239
:10028400B5FBFAF00AFB105544EA054400FB09F9F2
:10029400A14509D9E41900F1FF3380F00A81A14591
:1002A40040F2078102383C44A4EB090440EA0840C8
:1002B4000021002E61D024FA0EF400233460736010
:1002C400BDE8F0878B4207D9002E54D0002186E880
:1002D40021000846BDE8F087B3FA83F1002940F015
:1002E4008E80AB4202D3824200F2FA80841A65EB1C
:1002F40003050120AC46002E3FD086E81010BDE86F
:10030400F08712B90127B7FBF2F7B7FA87FEBEF1FF
:10031400000F34D1EB1B3A0C1FFA87FC0121B3FB0D
:10032400F2F8250C02FB183345EA03450CFB08F3ED
:10033400AB4207D9ED1908F1FF3002D2AB4200F20B
:10034400D1808046ED1AA3B2B5FBF2F002FB105542
:1003540043EA05440CFB00FCA44507D9E41900F169
:10036400FF3302D2A44500F2B8801846A4EB0C0473
:1003740040EA08409DE731463046BDE8F087CEF1BB
:10038400200405FA0EF307FA0EF720FA04F83A0CE3
:1003940025FA04F448EA0308B4FBF2F14FEA1845DD
:1003A40002FB11441FFA87FC45EA044501FB0CF3E8
:1003B400AB4200FA0EF409D9ED1901F1FF3080F0D7
:1003C4008A80AB4240F2878002393D44EB1A1FFA1F
:1003D40088F5B3FBF2F002FB103345EA034500FB5A
:1003E4000CF3AB4207D9ED1900F1FF386FD2AB42E1
:1003F4006DD902383D44EB1A40EA01418FE7C1F15F
:10040400200722FA07F88B4005FA01F448EA0303AF
:1004140020FA07FE4FEA134CFD404EEA040EB5FBEA
:10042400FCF94FEA1E440CFB19551FFA83F844EA01
:10043400054509FB08F4AC4202FA01F200FA01FA9C
:1004440008D9ED1809F1FF3043D2AC4241D9A9F1E2
:1004540002091D442D1B1FFA8EFEB5FBFCF00CFB9C
:1004640010554EEA054400FB08F8A04507D9E418E6
:1004740000F1FF3529D2A04527D902381C4440EAAF
:100484000940A4EB0804A0FB02894C45C6464D462E
:1004940015D312D056B1BAEB0E0364EB050404FA7B
:1004A40007F7CB401F43CC40376074600021BDE8A0
:1004B400F0871846F8E69046E0E6C245EAD2B8EB83
:1004C400020E69EB03050138E4E72846D7E7404606
:1004D40091E78146BEE7014678E702383C4445E7A8
:1004E400084608E7A8F102083D442BE7704700BF1F
:1004F40038B50E4A0E4B054618784FF47A73B3FBA1
:10050400F0F31068B0FBF3F000F0AAF8044658B911
:100514000F2D09D8024629464FF0FF3000F05EF84F
:10052400044B20461D6038BD012038BD1401002055
:10053400000000200400002008B50B4B1A6842F4A8
:1005440000721A601A6842F480621A601A6842F4EF
:1005540080721A60032000F02FF80020FFF7C8FF14
:1005640003F0E0FC002008BD003C0240034A044BB9
:1005740011681B780B441360704700BFF80100201A
:1005840000000020014B1868704700BFF8010020EC
:1005940038B50446FFF7F6FF631C1CBF054B1B78F8
:1005A400054618BFE418FFF7EDFF401B8442FAD854
:1005B40038BD00BF00000020074AD36823F4E0637D
:1005C4001B041B0C43F0BF63000243F4003300F42C
:1005D400E0600343D360704700ED00E0174B30B593
:1005E400DC68C4F30224C4F10703251D042B28BFCF
:1005F4000423062D4FF0010505FA03F303F1FF333D
:100604008CBF033C00241940A14005FA04F4013CCA
:100614002240002842EA01024FEA0212ADBF00F173
:10062400604000F00F00064B00F56140B5BFD2B248
:10063400D2B21A5480F8002330BD00BF00ED00E0B0
:1006440014ED00E0002808DB4209012300F01F003C
:1006540003FA00F0014B43F82200704700E100E088
:100664000138B0F1807F0AD2064B074A5860F02166
:1006740082F823100020072298601A607047012036
:10068400704700BF10E000E000ED00E00368DAB25C
:1006940023F47F7323F003031821103AB2FBF1F221
:1006A4000449032A88BF0433895C8365C165806D6E
:1006B400704700BF5448000870B50446FFF762FF56
:1006C4000546002C71D0002384F8343022680223BC
:1006D40084F83530136823F00103136021680B6834
:1006E400D8073CD40B68324D6268A0691D40A368EA
:1006F4001343E26813432269134362691343E269B3
:1007040003431343226A1343626A042A43EA050338
:1007140001BF266BE56A35432B430B604B69042A02
:1007240023F0070343EA02030BD1A26AE56A1343E9
:100734003DB1F8B9012A2DD001D3022A01D1EA0131
:100744002BD44B612046FFF7A1FFE26D3F2393407A
:10075400836000200123606584F8353070BDFFF7A5
:1007640011FF401B0528B9D920236365032084F8B1
:10077400350070BDB0F5005F13D1032AE1D801A0A4
:1007840050F822F09F070008430700089F0700085D
:1007940099070008B5F1C07FD3D1402363650120D8
:1007A400E5E7022AF9D9032AC8E7012070BD00BF92
:1007B4003F8010F0F7B5002301935A4B856D1F68F5
:1007C400C36D2E6808229A40164204460CD0016874
:1007D4000868400708D5086820F004000860AA608B
:1007E400626D42F00102626501229A40164208D00D
:1007F40021684969090641BFAA60626D42F002029C
:10080400626504229A40164208D021680968880764
:1008140041BFAA60626D42F00402626510229A40F0
:10082400164210D02368196809070CD5AA601A6803
:10083400500335D51B68190301D4236C00E0A36C65
:100844000BB120469847E16D20228A40164238D0E9
:1008540023681868C60634D5AA6094F83520052A9A
:100864001A6825D122F016021A605A6922F0800211
:100874005A61226C0AB9A26C1AB11A6822F00802F1
:100884001A603F238B40AB60002384F8343001238B
:1008940084F83530236D0BB12046984703B0F0BD82
:1008A4001A68D2055EBF1A6822F008021A60C4E70B
:1008B400500328D51B68190332D4636C0BB120464E
:1008C4009847636D002BE9D0636DDA0719D50523CA
:1008D400226884F83530136823F0010313604FF461
:1008E4001653B7FBF3F7019B01339F42019302D3E5
:1008F4001368DB07F7D4002384F83430012384F829
:100904003530E36CC7E71A6812F4807208D11968AD
:1009140021F010011960012384F8342084F8353063
:10092400E36BCBE7140100202DE9F04F85B00B6891
:10093400DFF88C81604A01934FF001090023019D87
:1009440009FA03F42540AC4240F0A6804C6824F038
:10095400100C0CF1FF36012E4FEA430E12D88768B3
:10096400032606FA0EF627EA0607CE6806FA0EF6FE
:100974003E4386604768C4F3001627EA05079E4095
:100984003E4346600326C76806FA0EF6F64307EAB6
:10099400060A8F6807FA0EF747EA0A07BCF1020F46
:1009A400C76016D14FEAD30A00EB8A0A03F0070B9B
:1009B400DAF820704FEA8B0B4FF00F0C0CFA0BFC9B
:1009C40027EA0C0C0F6907FA0BF747EA0C07CAF879
:1009D400207007683E4004F0030707FA0EFE4EEA53
:1009E40006060660E60057D54FF0000BCDF80CB0B4
:1009F400D8F84470314E47F48047C8F84470D8F8AA
:100A0400447007F480470397039F23F0030707F11B
:100A1400804707F59C3703F0030CD7F808A04FEA8A
:100A24008C0C4FF00F0E0EFA0CFEB0422AEA0E0E9A
:100A340039D006F58066B04237D006F58066B042FC
:100A440035D006F58066B04233D006F58066B042F4
:100A540014BF0726042606FA0CF646EA0E06BE6004
:100A64001668EF4314F4803F0CBF3E402E431660DB
:100A7400566814F4003F0CBF3E402E4356609668FF
:100A840014F4801F0CBF3E402E439660D668A40227
:100A940054BF3E402E43D6600133102B7FF44FAF3A
:100AA40005B0BDE8F08F5E46D5E70126D3E7022600
:100AB400D1E70326CFE700BF003C0140000002401D
:100AC400003802400AB1816170470904FBE7000065
:100AD40070B5044608B9012070BD90F83D3003F0AC
:100AE400FF021BB980F83C2003F038FA242384F871
:100AF4003D3023681A6822F001021A601A6842F431
:100B040000421A601A6822F400421A6000F0ACFF36
:100B14006568414B9D424DD8404B9842DBD92268D1
:100B24003F495368B0FBF1F123F03F030B4353609B
:100B3400136A23F03F03013119431162D169364B23
:100B440021F44F419D4221F0FF0100F1FF3048D8CC
:100B54006D00B0FBF5F00130C0F30B03042B38BF7C
:100B640004230B43D3611168206AE36921F0C001B7
:100B740003430B4313609168E068236921F4034144
:100B8400034321F0FF010B439360D168A0696369BB
:100B940021F0FF0103430B43D360136843F00103C7
:100BA400136000202023206484F83D30206384F8FF
:100BB4003E0070BD1B4B98428DD92268184E536875
:100BC400B0FBF6F623F03F0333435360136A4FF44C
:100BD4009671714323F03F034FF47A76B1FBF6F13B
:100BE400A9E7A36853B905EB4503B0FBF3F0431C35
:100BF400C3F30B036BB143F40043B2E719236B4314
:100C0400B0FBF3F0431CC3F30B0313B143F44043B1
:100C1400A7E70123A5E700BFA08601007F841E008B
:100C240040420F00FF083D00F0B504468BB060B3AE
:100C340090F8BD33056803F0FF021BB980F8BC23AC
:100C440003F0F0FA032384F8BD33EB6B254613F469
:100C5400807355F8100B08BF236101F08BFB0FCD97
:100C64006E460FC60FCD0FC695E8030086E8030055
:100C74002546271D97E80E0055F8100B01F0C0FA21
:100C8400064620B1022384F8BD33012550E0014615
:100C9400206801F075FB3046D4F804E01C264FF0C0
:100CA400010C0146C2B2964500F101001CD8002394
:100CB4001C261946D8B2864503F1010322D80FCD6C
:100CC4006E460FC60FCD0FC695E8030086E80300F5
:100CD40097E80E00206801F095FB0123054600B358
:100CE400022284F8BD23D0E706FB024383F83DC00B
:100CF40083F83C20A3F8422083F83F105964996498
:100D04001965CFE706FB004282F8FD1182F8FC0169
:100D140082F8FF11C2F80412C2F80812C2F81012C5
:100D2400C8E784F8380084F8BD33206801F0BCFEBD
:100D340028460BB0F0BD90F8BC33012B10B5044627
:100D440016D00123006884F8BC33A36A012B06D1B2
:100D5400A369012B1EBF836B43F48033836301F0CB
:100D640097FE206801F000FB002084F8BC0310BD4E
:100D7400022010BD2DE9F04F066887B004463046C6
:100D840001F0CDFE0290002840F02281206801F09D
:100D940097FE002800F01C81206801F091FE830773
:100DA40048BF2268206842BF536903F002035361BD
:100DB40001F086FE070300F10E81206801F080FE39
:100DC40045030CD5206801F087FE2546834606F5C9
:100DD400106A4FF00009BBF1000F40F0BC8120689D
:100DE40001F06EFE002815DAD6F8043823F001036A
:100DF400C6F8043894F8F433012B40F04182002102
:100E040084F8F413204600F0B7FB2268536903F01A
:100E140000435361206801F053FE00050BD5D6F85A
:100E24000838D90702D5204603F06CFA22685369C2
:100E340003F400635361206801F042FEC20435D517
:100E440006F500656B68206823F001036B601021D0
:100E540001F0AEFA606806F510634FF67F31029A2E
:100E6400824240F01182EB6943F00113EB61236B82
:100E7400002B00F01B82D5F8843043F00B03C5F837
:100E840084306B6C43F00B036B64D6F80038217C20
:100E9400206823F4FE63C6F8003804F5717201F08B
:100EA4005DFE2268536903F480535361206801F0A6
:100EB40007FE830416D5206801F035FE206801F092
:100EC40065FBE060256800F0C9FD227B01462846E9
:100ED40001F0D6F9204603F002FA2268536903F4BC
:100EE40000535361206801F0EBFDC7062AD5226840
:100EF400936923F010039361356AC5F34343022BCE
:100F040005F00F0740F0DD8147F6F0731D4214D061
:100F14001C2303FB0747C5F30A152A46D7F8081212
:100F2400304601F03FFDD7F808322B44C7F80832A9
:100F3400D7F814321D44C7F814522268936943F059
:100F440010039361206801F0BBFD060707D5204616
:100F540003F0C1F92268536903F008035361206860
:100F640001F0AEFDC50208D50021204603F0EAF9E0
:100F74002268536903F480135361206801F0A0FDD3
:100F8400800208D50021204603F0D8F9226853696D
:100F940003F400135361206801F092FD410007D56A
:100FA400204603F0D3F92268536903F08043536168
:100FB400206801F085FD42070AD523685D686B0748
:100FC40002D5204603F0C6F923685A6815435D60CC
:100FD40007B0BDE8F08F2068DFF808B301F074FDB6
:100FE40006F530658246A0460027BAF1000F3FF4AB
:100FF400E4AE1AF0010F00F0A780FAB2114620689F
:10100400039201F071FD10F0010F8146039A4CD058
:101014000123AB6023682069D3F840E003F5306313
:1010240003EB47130128996854D1080714D5DE450A
:1010340004D90A0444BF4FF400429A602046039343
:1010440003F032F904F571720121206801F086FD84
:10105400039B08229A6028E0880601D52022F9E73C
:1010640011F0280F21D1DE4504D9090402D54FF42B
:101074000042EFE71B69D8F80412C3F31203CB1A3A
:10108400C8F81432D8F808321944C8F808122046AF
:10109400114603F00FF947B9D4F810322BB904F50F
:1010A40071720121206801F059FD19F0080F33D045
:1010B400236820691A6C03F5306303EB4713012896
:1010C400996815D15A4516D9090444BF4FF4004113
:1010D400996010E08248864505D10804C7D4880683
:1010E40044BF202199601146204603F0E3F8DCE771
:1010F4007B488242E8D02046039203F0D5F8039A55
:101104005A4507D92169012904D104F5717220686F
:1011140001F024FD0823AB6019F0100F1CBF10234D
:10112400AB6019F0200F09D02169012904D104F51D
:101134007172206801F012FD2023AB6019F4005F86
:101144001CBF4FF40053AB6001374FEA5A0A2035F5
:1011540008F11C0849E71BF0010F00F089805FFAD1
:1011640089F319462068039301F0C7FCC3070746B7
:1011740024D5D6F834380399012009F00F0200FA77
:1011840002F223EA0203C6F834382369CAF80800D5
:10119400834201BFAB6C6A6C9B18AB64204603F0BE
:1011A40092F82169012909D1B9F1000F06D1236D03
:1011B40023B904F57172206801F0D0FC380744BFEC
:1011C4000823CAF80830F90644BF1023CAF80830C7
:1011D4007A0644BF4023CAF80830BB0744BF022341
:1011E400CAF808303F0643D56B6D2F6DBB423FD81C
:1011F400FF1A6B6C226804929F4228BF1F4602F5B7
:101204001063033703EB4913BF080593059B6A6D0D
:101214009B699BB2BB422B6D28D3934226D963B9F9
:10122400049B09F00F01D3F83428012000FA01F1DE
:1012340022EA0102C3F834281AE0A3EB02086B6C1B
:10124400039A0498984528BF9846237C0093A96C78
:101254001FFA88F301F0A4FAAB6C4344AB646B6DE2
:1012640008F103074344BF086B65CFE79342D7D91E
:1012740009F101094FEA5B0B1C350AF1200AAAE5C2
:10128400204603F057F8C0E599601A6822F400126A
:101294001A60C3F80812D3F8002222F40012C3F82B
:1012A4000022029A013202922033D8E56B6943F49A
:1012B400005343F02B036B612B6943F00B032B6149
:1012C400E3E5062B7FF439AE082204F5717130464C
:1012D40001F068FB1C2303FB0747C5F30A1527E647
:1012E4000A31544F0A30544F90F8BC23012A10B5E8
:1012F40004460BD0012280F8BC2384F8381000681F
:1013040001F0B6FB002084F8BC0310BD022010BD20
:1013140070B5044601F00F0011F0800F4FF01C0669
:10132400C5B206FB054115BF06FB054506FB054591
:101334003C3101F5FE7115BF0126002685F83D609C
:1013440085F8FD618A604A78CB70C0B2087002B13A
:10135400C880022B04BF00230B7194F8BC33012B0B
:1013640009D0012384F8BC33206801F01AF9002065
:1013740084F8BC0370BD022070BD01F00F03DAB223
:1013840010B504461C2011F0800F00FB024119BF68
:101394003C3100FB024200FB024201F5FE7115BF25
:1013A4000120002082F83D0082F8FD010B7094F8C2
:1013B400BC33012B09D0012384F8BC33206801F02D
:1013C40033F9002084F8BC0310BD022010BD38B5E9
:1013D40001F00F051C2404FB050104FB050401F5C1
:1013E400FE71C4F810320023C4F80822C4F8143281
:1013F40084F8FD3184F8FC5103690068012B08BFAF
:10140400C4F80C22DAB21DB901F040F9002038BD4D
:1014140001F0DAF9FAE738B501F00F051C2404FBF2
:10142400050104FB05043C312365002363650123A6
:10143400A26484F83D3084F83C5003690068012BB1
:1014440008BFE264DAB21DB901F020F9002038BD0A
:1014540001F0BAF9FAE738B5436801F00F059D4287
:1014640004462ED811F0800F4FF01C021FD002FB4F
:10147400050102FB050301223C3381F83D200122D2
:101484009A701D7094F8BC1391421CD084F8BC234C
:101494001946206801F094FA2DB904F57172217C83
:1014A400206801F05BFB002084F8BC0338BD02FB1C
:1014B400010302FB0101002203F5FE7381F8FD2103
:1014C400DDE7012038BD022038BD38B5436801F09E
:1014D4000F029A42044626D81C2311F0800F03FB06
:1014E400020119BF3C3103FB020301F5FE7103FB4A
:1014F400024314BF012000204FF0000514BF83F8FD
:101504003D0083F8FD018D700A7094F8BC33012B03
:101514000BD0012384F8BC33206801F07EFA84F8F0
:10152400BC53284638BD012038BD022038BD70B5F3
:101534000468636A21B943EA0243A362002070BDD0
:10154400A06A4D1E03EB10430020461CC0B2854226
:1015540006D83F3104EB810443EA02436360EDE7BC
:10156400403004EB8000406803EB10433046ECE766
:101574000368002059627047704700002DE9F34169
:10158400044608B901203FE00368DD0710D423684E
:1015940098075AD423681A0700F19C8023685B07D4
:1015A40000F1BA80A069002840F01B8100202BE0E4
:1015B400A44B9A6802F00C02042A07D09A6802F03D
:1015C4000C02082A0AD15B68590207D59D4B1B6897
:1015D4009A03DCD56368002BD9D1D3E76368994DAE
:1015E400B3F5803F13D12B6843F480332B60FEF7AF
:1015F400C9FF944D06462B689B03C8D4FEF7C2FF6F
:10160400801B6428F7D9032002B0BDE8F081B3F54C
:10161400A02F04D12B6843F480232B60E3E72A68CE
:1016240022F480322A602A6822F480222A60002B65
:10163400DDD1FEF7A7FF06462B689F03A7D5FEF76B
:10164400A1FF801B6428F7D9DDE77E4B9A6812F06E
:101654000C0F07D09A6802F00C02082A11D15B68BB
:101664005E020ED4774B1A68950702D5E268012A08
:1016740088D11A68216922F0F80242EAC1021A608C
:1016840088E7E268704BB2B101221A60FEF77AFF74
:101694006C4D06462B68980707D52B68226923F002
:1016A400F80343EAC2032B6074E7FEF76BFF801B69
:1016B4000228EFD9A7E71A60FEF764FF614D0646DA
:1016C4002B6899077FF566AFFEF75CFF801B022845
:1016D400F6D998E762695D4B7AB101221A60FEF788
:1016E40051FF584D06466B6F9F073FF557AFFEF706
:1016F40049FF801B0228F6D985E71A60FEF742FFEE
:10170400504D06466B6F98077FF548AFFEF73AFFDA
:10171400801B0228F6D976E74A4B1A6C12F08052E5
:1017240028D101921A6C42F080521A641B6C03F0A7
:1017340080530193019B0126454D2B68D9051BD588
:10174400A368404D012B27D12B6F43F001032B6776
:10175400FEF718FF3B4D074641F288382B6F9B0775
:1017640039D5002E3FF41EAF364A136C23F0805354
:10177400136417E70026DFE72B6843F480732B60BC
:10178400FEF700FF07462B68DA05D9D4FEF7FAFE08
:10179400C01B0228F7D936E7052B04D12B6F43F081
:1017A40004032B67D0E72A6F22F001022A672A6F0D
:1017B40022F004022A67002BCAD1FEF7E3FE41F2AD
:1017C400883807462B6F9807CBD5FEF7DBFEC01B86
:1017D4004045F7D917E7FEF7D5FEC01B4045BDD9F4
:1017E40011E7184DAB6803F00C03082B47D0194ED2
:1017F40000230228336035D1FEF7C4FE07462B6868
:10180400990129D4226AE3691343626A43EA821381
:10181400E26A43EA0263A26A0A4C5208013A43EAC2
:1018240002436B6001233360FEF7ACFE0546236878
:101834009A013FF5BBAEFEF7A5FE401B0228F6D980
:10184400E1E600BF0038024000004742800E4742F4
:101854000070004060004742FEF794FEC01B02285F
:10186400CDD9D0E6FEF78EFE04462B689B017FF5AA
:101874009DAEFEF787FE001B0228F6D9C3E60128B9
:101884003FF4C2AEA868E36900F480029A427FF490
:1018940079AE226A00F03F0393427FF473AE626A2A
:1018A40047F6C073034093427FF46CAEA26A00F41F
:1018B400403393427FF466AEE36A00F07060C01A6E
:1018C40018BF0120A0E600BF134908B58B6803F0D8
:1018D4000C03042B03D0082B03D0104808BD104878
:1018E40008BD4A684B68496813F4800314BF0C4868
:1018F4000A48C1F3881118BF002302F03F02A1FB7C
:101904000001FEF76DFC044B5B68C3F30143013334
:101914005B00B0FBF3F008BD003802400024F40083
:1019240040787D012DE9F0410D46044610B90120AF
:10193400BDE8F081444B1A6802F00F028A4229D3B1
:1019440021688F072ED4C80741D43F4B1A6802F090
:101954000F02954267D3226851076DD4130707D548
:101964003A4A2169936823F4604343EAC1039360CC
:10197400FFF7AAFF354B364A9B68C3F30313D35CC6
:10198400D840344B1860344B1868FEF7B1FD002082
:10199400BDE8F081CAB21A701B6803F00F039942C4
:1019A400C5D1CDE7294B11F0040F1EBF9A6842F44C
:1019B400E0529A600E0742BF9A6842F460429A600D
:1019C4009A68A06822F0F00202439A60BBE762685A
:1019D4001E4B012A1DD11B6813F4003FA7D01B4ED8
:1019E400B36823F003031343B360FEF7CBFD41F266
:1019F40088380746B368626803F00C03B3EB820FC0
:101A0400A3D0FEF7BFFDC01B4045F3D90320BDE8BA
:101A1400F081911E01291B6802D813F0007FDDE7D5
:101A240013F0020FDAE7EAB21A701B6803F00F032F
:101A34009D427FF47CAF8EE70449E0688B6823F411
:101A4400E05303438B6089E7003C024000380240C6
:101A5400DB4800081401002004000020014B186832
:101A6400704700BF14010020044B054A9B68C3F370
:101A74008223D35C034A1068D84070470038024080
:101A8400EB48000814010020044B054A9B68C3F38B
:101A94004233D35C034A1068D84070470038024090
:101AA400EB48000814010020036813F0050FF7B594
:101AB40004463CD123689A0730D500230193444B54
:101AC400444D1A6C42F080521A641B6C03F080532C
:101AD4000193019B2B6843F480732B60FEF752FD46
:101AE40006462B68D9054AD5394D2B6F13F440733C
:101AF4004BD1E36803F44072B2F5407F344A63D1BA
:101B0400916823F0704021F4F81120F440700143EF
:101B14009160116FC3F30B030B431367206810F03C
:101B240008001FBF2C4B227C1A60002025E02B4D9F
:101B3400274E00232B60FEF725FD074633681B0163
:101B440015D4A36862681B0743EA8213C6F884307D
:101B540001232B60FEF716FD1D4D06462B68180168
:101B6400A8D4FEF70FFD801B0228F7D904E0FEF786
:101B740009FDC01B0228E1D9032003B0F0BDFEF724
:101B840001FD801B0228ACD9F6E7E26802F440723A
:101B94009342AED02B6F124A0121116023F440739B
:101BA400002111602B672B6FDA07A2D5FEF7EAFC40
:101BB40041F2883706462B6F9B079AD4FEF7E2FC66
:101BC400801BB842F7D9D7E7916821F4F8119FE751
:101BD4000038024000700040E0114742680047426C
:101BE400400E4742026838B5D36823F0A003D3609F
:101BF4000446FEF7C7FC05462368DB689B0601D54F
:101C0400002038BDFEF7BEFC401BB0F57A7FF3D947
:101C1400032038BD38B50368DA685206044601D596
:101C2400002038BD4FF0FF32DA60FEF7ABFC05460A
:101C34002368DB685B06F3D4FEF7A4FC401BB0F515
:101C44007A7FF5D9032038BD38B50446B8B1437F4F
:101C540003F0FF0213B9027702F0D4F90223637789
:101C64002368CA225A6253225A622046FFF7D2FFDF
:101C74002368054628B1FF225A62042363770125AD
:101C84002EE09A68206922F4E00222F040029A6071
:101C9400626899680243606902430A439A60E26891
:101CA4001A611A69A16842EA01421A61DA6822F0EB
:101CB4008002DA609B689B0605D42046FFF792FFFA
:101CC40008B12368D7E72368A1691A6C22F480223B
:101CD4001A641A6C0A431A64FF225A620123637756
:101CE400284638BD022380F83D3003689A6802F024
:101CF4000702062A1EBF1A6842F001021A60012375
:101D040080F83D3000207047244A036890420ED08A
:101D1400B0F1804F0BD0A2F57C42904207D002F57F
:101D24008062904203D002F58062904215D14A68E5
:101D340023F070031343194A904219D0B0F1804F35
:101D440016D0A2F57C42904212D002F580629042F5
:101D54000ED002F5806290420AD0114A904207D018
:101D640002F58062904203D002F58062904203D172
:101D7400CA6823F4407313434A6923F0800313436E
:101D840003608B68C3620B688362044B984204BF90
:101D94000B69036301234361704700BF00000140E6
:101DA4000040014010B50446A0B190F83D3003F066
:101DB400FF021BB980F83C2002F030F9022384F8BA
:101DC4003D302068211DFFF79FFF012384F83D303B
:101DD400002010BD012010BD10B584680A4324F40E
:101DE4007F4442EA03232343836010BD90F83C30D0
:101DF400012B70B504464FF0020019D084F83D0061
:101E04002068012384F83C30836823F47F4323F063
:101E1400770383600B68402B65D015D8102B0CD04A
:101E240007D853B10123002084F83D3084F83C00E6
:101E340070BD202B01D0302BF4D1826843F007030E
:101E440022F0700213431AE0602B34D019D8502BBF
:101E5400E8D14A68CE68016A056A25F00105056281
:101E6400836921F00A0123F0F00343EA06130A43CD
:101E740083610262836823F0700343F05703836035
:101E8400D0E7702B0CD0B3F5005FCBD1CB684A6898
:101E94008968FFF7A1FF2268936843F4804308E050
:101EA400CB684A688968FFF797FF2268936843F014
:101EB40077039360B6E74D68CE68016A21F010019C
:101EC40001628269036A22F4704223F0A00343EAA8
:101ED400051342EA063282610362836823F07003C9
:101EE40043F06703CBE74A68CE68016A056A25F0C8
:101EF40001050562836921F00A0123F0F00343EA36
:101F040006130A4383610262836823F0700343F07B
:101F14004703B4E790F83C30012B30B54FF002038F
:101F24002DD080F83D3003680D685C6824F070049F
:101F340001222C4380F83C209A685C60114CA34237
:101F440012D0B3F1804F0FD0A4F57C44A3420BD040
:101F540004F58064A34207D004F58064A34203D04F
:101F640004F59A34A34204D1496822F080020A435A
:101F74009A60012380F83D30002380F83C301846F5
:101F840030BD00BF0000014038B50368C1681A695C
:101F9400044622F440520A431A612569A268D968AA
:101FA400C0692A43656921F416412A4321F00C01D2
:101FB40002430A43DA605A69A16922F440720A436F
:101FC400B0F5004F5A61254A29D1934203D002F556
:101FD4008062934220D1FFF757FD6268256892180A
:101FE4004FF000034FF019015B41A0FB0101FEF724
:101FF400F7F86421B0FBF1F401FB1403DB00323386
:10200400B3FBF1F303F007025B0002EB041203F4E9
:10201400F8731344AB6038BDFFF726FDDDE7934248
:1020240002D00F4A934216D1FFF72EFD636825684C
:1020340019219A00A0FB01019B0FFEF7D1F864223D
:10204400B0FBF2F102FB11031B013233B3FBF2F3D9
:1020540003EB0113DEE7FFF707FDE7E7001001409C
:1020640000140140F8B504460E4617461D46216883
:102074000B6836EA030301D10020F8BD6B1CF7D0CE
:1020840095B92368DA6822F4D072DA605A6922F0CA
:1020940001025A61202384F8393084F83A3000234D
:1020A40084F838300320F8BDFEF76CFAC01B854273
:1020B400DDD2E6E710B5044640B390F8393003F0BA
:1020C400FF021BB980F8382001F0D0FF22682423D6
:1020D40084F83930D36823F40053D3602046FFF7E3
:1020E40053FF23681A6922F490421A615A6922F054
:1020F4002A025A61DA6842F40052DA60002020238E
:10210400E06384F8393084F83A3010BD012010BD02
:102114002DE9F8431F4690F83930202B04460D462C
:10212400904651D100294CD0002A4AD090F838303A
:10213400012B49D0012380F838304FF000092123C6
:10214400C0F83C9080F83930FEF71CFAA4F82480DB
:102154000646A4F8268084F83890E38C9BB25BB9D9
:102164003B46324640212046FFF77CFFA0B920239E
:1021740084F83930BDE8F883E38C013B9BB2E384F7
:10218400A368B3F5805F32463B464FF0800120469A
:102194000ED1FFF767FF10B10320BDE8F8832B8849
:1021A4002268C3F308035360236943B90235D4E7B3
:1021B400FFF758FF0028EFD123682A785A600135C9
:1021C400CBE70120BDE8F8830220BDE8F8830000D6
:1021D4000A4B013B01D1032070470269002AF8DA57
:1021E4000369064A43F001030361013AF3D003692A
:1021F40013F00103F9D11846704700BF410D0300E5
:1022040084B038B505AD85E80E000A9B012B044661
:1022140025D1836B23F480338363C36823F484035D
:1022240023F04003C360C36823F44013C360119BCD
:10223400012B02BFC36843F48013C360FFF7C8FFD8
:10224400089B012B07D1A36843F00603A360A3688E
:1022540043F02003A360BDE8384004B07047C3686E
:1022640043F04003C360FFF7B3FF0E9B23B9A36B96
:1022740043F48033A363E3E7A36B23F48033F9E7E8
:10228400022A58D12E4B2F4A0B44934247D92E4B46
:102294002E4A0B44934244D9A1F574032C4AA3F566
:1022A400105393423FD9A1F1837302F5C332A3F5CE
:1022B400E743A032934238D9264B274A0B44934232
:1022C40035D9264B02F592220B4402F578729342DB
:1022D4002FD9234B02F5C3220B4402F520729342FB
:1022E40029D9A1F1B77302F5B712A3F5585302F532
:1022F4005872934221D91B4B02F512220B4402F56A
:10230400F862934294BF07230623C26822F47052F2
:10231400C260C26842EA8323C360002070470F236F
:10232400F3E70E23F1E70D23EFE70C23EDE70B238F
:10233400EBE70A23E9E70923E7E70823E5E700BF1A
:10234400405327FFFF340C00401E1BFF3F420F0089
:102354007F4F120060B6E5FE5FE3160000D3CEFEA9
:10236400C05BB3FEE05459FE836843F0010383600D
:1023740000207047836823F00103836000207047C6
:1023840008B5C368012923F0C043C36008D1C368FA
:1023940043F00053C3603220FEF7FAF8002008BD72
:1023A40019B9C36843F08043F4E7012008BD000075
:1023B400890141F02001064A0161013A05D003690F
:1023C40013F02003F9D1184670470320704700BF6B
:1023D400410D03001023064A0361013A05D0036945
:1023E40013F01003F9D1184670470320704700BF5B
:1023F400410D0300D0F800381943C0F8001800203C
:102404007047000084B02DE9F047044609A880E82D
:102414000E0000230C9F139E8846194603F14002C8
:1024240004EB820201330F2B5160F7D1002E73D1DC
:10243400A36B43F40013A363A36B23F40023A363EC
:10244400A36B23F48023A3630023C4F8003ED4F8D1
:102454000038C4F800380E9B012B04F5006565D1E3
:102464000B99002960D12046FFF7C4FF10212046B4
:10247400FFF79EFF01462046FFF7ACFF002857D127
:10248400081C18BF012000232B6104F510626B6146
:102494001946EB614FF0904E4FF0006C4FF67F39C8
:1024A400434547D1002104F530628E464FF0904CED
:1024B4004FF000684FF67F398B424ED12B69012FC4
:1024C40023F480732B6107D12E4B2B632B6B43F4C6
:1024D400803343F003032B630023A3616FF0804335
:1024E40063611FB9A36943F01003A361A269264B7A
:1024F4001343A3610F9B1BB1A36943F00803A361BA
:10250400012E01BFA36943F0804343F00403A36198
:10251400BDE8F04704B07047236823F40013236038
:10252400A36B43F400238EE719469CE703219AE743
:102534000120A8E7D2F800A0BAF1000F0BDA3BB9EA
:10254400C2F800C011610133C2F808902032A7E735
:10255400C2F800E0F6E71160F4E7D2F800A0BAF19F
:10256400000F0CDA41B9C2F80080C2F810E0013162
:10257400C2F8089020329FE7C2F800C0F5E7C2F81D
:1025840000E0F2E70001800000383C80D0F8083811
:1025940013F0060004D013F0020F14BF02200F2022
:1025A400704770B54A780C78D0F81C6800F5006361
:1025B400012A04F00F051BD1AA40324300EB44105A
:1025C400DA61D0F800391A0410D48B68C978D0F8CD
:1025D4000029C3F30A0343F0805343F4004343EA5E
:1025E400814343EA84531343C0F80039002070BD8B
:1025F4004FF48032AA40324300EB4410DA61D0F841
:10260400003B1B04F2D48B68C978D0F8002BC3F3C9
:102614000A0343F0805343F4004343EA81431343E2
:10262400C0F8003BE2E7000030B54B780C78D0F8F6
:102634003C1800F50062012B04F00F0510D1AB40EB
:10264400DB431940D163D16900EB44100B40D361E3
:10265400D0F800290B4B1340C0F80039002030BDDE
:102664004FF48033AB40DB431940D163D16900EBB5
:1026740044100B40D361D0F8002B034B1340C0F837
:10268400003BEBE7007833EC0078F3EFF0B54B78E0
:102694000C784E69414F012B4FF0200359D113FBA5
:1026A400040336BBD3F8105925F0FF5525F4C015A3
:1026B400C3F81059D3F8105945F40025C3F810593C
:1026C400D3F810592F40C3F81079012A4FF0200392
:1026D40029D10A691AB113FB0403C3F8142900EBC6
:1026E4004410D0F8002942F00442C0F80029002028
:1026F400F0BD03F510631D692F401F611D6925F0AE
:10270400FF5525F4C0151D618D68AE4288BF4D612B
:102714001D6945F400251D614D691E69C5F3120547
:1027240035431D61D1E713FB0404D4F8003943F0A9
:102734000443C4F800394B69002BD8D00A78D0F888
:10274400343802F00F0101228A401A43C0F83428B9
:10275400CDE713FB040000F530631C6927401F61BB
:102764001C6924F0FF5424F4C0141C618C6806B165
:102774004C611D6945F400251D611D69C4F31204F3
:102784002C43012A1C6102D1CA6802B15A61D0F8F3
:10279400003B43F00443C0F8003BA8E70000F8FF07
:1027A40010B59DF808404CB9033300EB023023F018
:1027B400030300F580500B44994201D1002010BD61
:1027C40051F8042B0260F7E7F7B54B780E78734F96
:1027D400012B4FF020044B6914FB060440F0988051
:1027E400002B38D104F51065D4F8104924F0FF54B7
:1027F40024F4C0142C612C6944F400242C612C6949
:1028040027402F61012A4FF0200454D10B691BB1DA
:1028140014FB0604C4F81439CB78012B10D1D0F87A
:10282400083813F4807F4FF0200313FB0603D3F81A
:1028340000290CBF42F0005242F08052C3F8002934
:1028440000EB4610D0F8003943F00443C0F80039D7
:10285400002003B0F0BDD4F810592F40C4F810790B
:10286400D4F810598F6825F0FF5525F4C015C4F825
:102874001059DD19013DB5FBF7F7494DD4F810E9BE
:1028840005EAC74545EA0E05C4F81059D4F810798D
:10289400C3F312053D43C4F81059CD78012D04F556
:1028A4001064AFD1256925F0C0452561256945F03F
:1028B40000552561A6E714FB0604D4F8005945F039
:1028C4000445C4F80059CD78012D0CD0002BBFD09D
:1028D4000B78D0F8344803F00F02012393402343CC
:1028E400C0F83438B4E7D0F8085815F4807FD4F829
:1028F40000590CBF45F0005545F08055C4F8005907
:102904000C7800929BB22246C968FFF749FF9FE703
:1029140004F5306635692F403761356925F0FF5578
:1029240025F4C01535618D6823BB3369C5F31205E1
:102934001D433561336943F40023012A336102D115
:10294400CB6803B17361CB78012B0CD1D0F8083874
:1029540013F4807FD4F8003B0CBF43F0005343F0E2
:102964008053C4F8003BD4F8003B43F00443C4F85C
:10297400003B6DE70A4FD6F810E02B44013BB3FB54
:10298400F5F307EAC34747EA0E0737619BB2376995
:102994006B43C3F312033B43CFE700BF0000F8FFD0
:1029A4000000F81F033222F003020A4400F58050AD
:1029B400914201D108467047036841F8043BF7E7A8
:1029C4004B780A78012B4FF0200313FB020012D13D
:1029D400D0F80039002B06DB2AB1D0F8003923F0F7
:1029E4008043C0F80039D0F8003943F40013C0F82C
:1029F400003900207047D0F8003B002B06DB2AB1D9
:102A0400D0F8003B23F08043C0F8003BD0F8003BF3
:102A140043F40013C0F8003BEBE74B780A78012B32
:102A24004FF0200313FB020011D1D0F8003923F436
:102A34000013C0F80039CB78023B012B05D8D0F83D
:102A4400003943F08053C0F8003900207047D0F8B3
:102A5400003B23F40013C0F8003BCB78023B012B6E
:102A64009EBFD0F8003B43F08053C0F8003BECE736
:102A7400D0F8003823F4FE63C0F80038D0F80038EA
:102A8400090101F4FE611943C0F8001800207047E1
:102A940008B5D0F8043823F00203C0F80438032042
:102AA400FDF776FD002008BD08B5D0F8043843F0E2
:102AB4000203C0F804380320FDF76AFD002008BDB6
:102AC4004269806910407047D0F8183800F50060FA
:102AD400C0691840000C7047D0F8183800F5006041
:102AE400C069184080B2704700EB411100F50060E6
:102AF400D1F8082B40691040704710B5D0F8104841
:102B0400D0F8343800EB411001F00F01CB4000F550
:102B14001060DB018068DBB22343184010BD4069BC
:102B240000F001007047D0F8003923F4FF6323F06C
:102B34000703C0F8003900F500639A6802F0060242
:102B4400042A02BFD0F8002942F00302C0F8002989
:102B54005A6842F480725A600020704710B5164BD0
:102B6400046C9C4203D9D0F8003B002B21DB0024E9
:102B7400C0F8104BD0F8104B44F40024C0F8104BAC
:102B8400D0F8104B44F01804C0F8104BD0F8104B98
:102B9400012944F0C044C0F8104B08BFC0F8142BFE
:102BA40000F5306302BFD0F8003B43F08023C0F847
:102BB400003B002010BD00BF0A30544F2223038085
:102BC400004870479000002022230380004870478B
:102BD400B40000202223038000487047F000002046
:102BE400D0F8903200201873704700000A23038045
:102BF40000487047E400002037B50025ADF80650C2
:102C04000D78D0F8904215F0600503460A461ED0B0
:102C1400202D52D14978023909294CD8DFE801F036
:102C2400140A4B4B4B4B4B4B1005937823600020FD
:102C340003B030BD01222146184600F0D7FBF6E769
:102C440053881B0A6360F2E70122211DF4E74978E7
:102C54000B2930D8DFE801F0062F2F2F2F2F0E2F4E
:102C64002F2F202893F87412032924D102220DF166
:102C74000601E1E75188090A222905D1D2881149C0
:102C84004E2A28BF4E22D7E7212914D1D2880E49D3
:102C9400092A28BF0922CFE793F8741203290AD11D
:102CA400012204F10801C7E793F87412032902D141
:102CB4009378A360BBE71146184600F070FB02202E
:102CC400B6E700BF08000020D800002038B504464D
:102CD400812101F08FFBD4F890020025E56218B140
:102CE40001F0C4FCC4F89052002038BD10B505238F
:102CF40004460322812101F06DFB0123E3621020CD
:102D040001F0ACFCC4F8900218B100230373184618
:102D140010BD022010BD10B5134690F87422032A8A
:102D240009D1D0F89042227B2AB9012222730A46A3
:102D3400812101F0ABFB002010BD08B580B1D0F8B3
:102D44008C3213B10023C0F88C3209B1C0F8881258
:102D5400012380F87432027001F000FB002008BDEA
:102D6400022008BD19B1C0F88C120020704702205F
:102D7400704708B501F020FB002008BD08B5D0F865
:102D84008C320BB9022008BD1B6898470028F9D182
:102D940008BD08B5D0F88C325B689847002008BDA0
:102DA40038B5044600F52075284600F0E4FA0123FE
:102DB40094F88012C4F86C32B4F88632C4F87032D5
:102DC40001F01F03012B0ED007D3022B10D001F00A
:102DD4008001204601F01CFB03E02946204600F058
:102DE40003F9002038BD2946204600F017FAF8E719
:102DF4002946204600F037FAF3E770B50546164633
:102E040049BBD0F86C32032B1ED1D0F84C31D0F82A
:102E1400502193420BD99B1A9A42C0F84C318CBF73
:102E24009AB292B2314600F0F6FA002070BDD0F8A2
:102E34008C321B6923B190F87422032A00D198477D
:102E4400284600F0F0FAF0E7052BEED1C5F86C1235
:102E540001F0DEFAE9E7D0F88C329B692BB190F8E7
:102E64007422032A01D19847DFE7022070BD70B5B0
:102E7400134604460E46002948D1D0F86C22022A93
:102E84003DD1056A426A954214D9AA1A02621946CA
:102E940092B200F0B8FA33461A461946204601F0B9
:102EA40003FB94F87832012B4FF000003AD184F8F8
:102EB400780270BDC369B3FBF2F502FB153565B941
:102EC4009A420AD8D0F87022934206D22A4600F0D9
:102ED4009AFAC4F870522B46DEE7D4F88C32DB68D9
:102EE4002BB194F87422032A01D1204698478021FB
:102EF400204601F08DFA204600F0A0FAD1E732F026
:102F04000403CED1802101F083FACAE7D0F88C32D1
:102F14005B6933B190F87422032A02D198470020E8
:102F240070BD022070BD70B5002204461146012513
:102F34004026402301F04EFA33468021C4F8445120
:102F4400C4F850610022204601F044FAD4F89032CB
:102F5400A5610021666284F87452C4F86C12616041
:102F6400C4F87C1223B1D4F88C3220465B689847AD
:102F7400002070BD01740020704790F8743280F80E
:102F84007532042380F874320020704790F875324B
:102F940080F874320020704708B590F87422032A30
:102FA40004D1D0F88C32DB6903B19847002008BD06
:102FB40000207047002070470020704708B50122A8
:102FC40080F87422D0F88C2201795268904700204E
:102FD40008BD10B58021044601F01AFA20460021EC
:102FE400BDE8104001F014BA37B50B7803F0600364
:102FF400202B04460D4614D0402B12D0002B40F059
:103004008D804B78092B00F28880DFE813F0DF0015
:10301400F9008600F20086007A0013008600CA00D8
:103024009800D4F88C3229469B68204698470020A3
:1030340003B030BD4B881A0A013A062A6DD8DFE87E
:1030440002F004202D6C6C4D5600D0F888321B68B9
:10305400207C0DF106019847BDF8062052B1EB889B
:1030640043B19A4228BF1A4601462046ADF80620CD
:1030740000F0BCF9EB88002BD9D1204600F0D3F93D
:10308400D5E7027CD0F88C3232B99B6A0DF1060088
:10309400984702234370DFE7DB6AF7E7DBB2052BCF
:1030A4003BD8DFE803F003070B0F1317D0F888327F
:1030B4005B68CDE7D0F888329B68C9E7D0F88832DE
:1030C400DB68C5E7D0F888321B69C1E7D0F88832DD
:1030D4005B69BDE7D0F888329B69B9E7037CE3B943
:1030E400D0F88C320DF106005B6B9847B4E7037C93
:1030F4009BB9D0F88C320DF106001B6B984707235F
:10310400C8E78B884BB9CB883BB94D887F2D04D851
:1031140090F87432032BE9B203D12046FFF759FF2C
:1031240085E780F8761201F0A3F9204600F07BF9D8
:103134001DB1022384F8743279E70123FAE7897810
:10314400354D01292970E8D890F87432022B08D043
:10315400032B14D0FFF73DFF29782046FFF719FE13
:1031640065E7002989D001210323416080F8743286
:103174002046FFF703FE02287FF47FAFCDE731B985
:10318400022380F874324160FFF703FE75E741685B
:1031940001293FF472AFC9B2FFF7FBFD29786160E2
:1031A400E6E7CA88012AB8D190F87432002BB4D06B
:1031B400022B03D9032BB0D1011D03E001460023E8
:1031C40041F8083F204600F011F930E790F87432D6
:1031D400013B022BA1D8CB88022B9ED10123C360D3
:1031E400D0F87C320BB10323C360022204F10C013A
:1031F400E8E74B88012B7FF41AAFC4F87C323CE734
:1032040090F87432013B022B87D84B88012B7FF452
:103214000EAF0023F1E700BFE801002038B50B78BA
:1032240003F06003202B04460D4602D0402B00D04F
:10323400B3B994F87432013B022B10D82B79012BCB
:103244000DD8D4F88C3229469B6820469847EB88E1
:103254001BB910B9204600F0E6F8002038BD20461E
:10326400FFF7B7FEF9E738B50A7802F06002202AC2
:1032740004460B4613D0402A11D06AB95D788A8877
:10328400012DD1B21FD035D3032D05D190F874226E
:10329400022A26D0032A0AD0FFF79BFE05E0D4F8C1
:1032A4008C221946926820469047002038BD5A88DF
:1032B4002AB94A0603D0DB880BB901F0A9F82046E5
:1032C40000F0B1F8F1E790F87422022A09D0032A39
:1032D400E2D15B88002BE8D14D06F0D001F0A6F8CE
:1032E400EDE74B0617D001F093F88021204601F05A
:1032F4008FF8DAE790F87432022B0ED0032BCBD17F
:1033040012F0800F4FF0140301F00F0203FB0202CE
:1033140012D09269DAB92046BEE74906FBD11306FA
:103324004CBF00F1140100F5A07100230B600222D0
:10333400204600F05BF8B8E7D2F84421002AEAD02E
:1033440001F07F0503FB050505F5A07504E001F018
:103354007F0505FB0335054411F07F0303D12B6082
:1033640002222946E4E7204601F06EF808B1012361
:10337400F5E72860F4E70B7803704B784370CA785C
:103384008B7803EB022343804A790B7903EB022306
:103394008380CA798B7903EB0223C380704710B50D
:1033A4008021044601F034F820460021BDE8104095
:1033B40001F02EB830B588B105462B1A15F8014B2B
:1033C400DBB2002CF9D101335B0013800B700323B3
:1033D4004B700138022310F8015F05B930BD5A1C47
:1033E400D2B2CD540233DBB28C54F4E710B5134699
:1033F4000222C0F86C22C3610A460362002101F074
:1034040045F8002010BD08B513460A46002101F016
:103414003DF8002008BD08B513460A46002101F016
:1034240043F8002008BD08B50423C0F86C3200231B
:103434001A46194601F02AF8002008BD08B50523EC
:10344400C0F86C3200231A46194601F02DF800200A
:1034540008BD0A78F0B5541C0646E4B20123355D74
:10346400303D092D08D900200A27B45C303CE5B270
:10347400092D08D90A70F0BD03EB830301345B0006
:10348400E4B29BB2EBE7013203FB0400D2B2B3FB1C
:10349400F7F3EAE72DE9F04F89B013780492044674
:1034A4000D460126EA5C3B2A45D100238DF81F30E6
:1034B4001946E85C5A1C2028D2B246D009B18DF8CE
:1034C4001F3006F00F033046019301F0C7F8012EB8
:1034D40082463DD9701E01F0C1F8804608F102030E
:1034E400002702930123D14603933A46BB46009733
:1034F4009DF81F30E95C6B292ED06D292BD09DF8E7
:1035040004302370637BC4F804A06BF3000362F3FC
:10351400410303F0FB03002167F3C3036180C4F894
:103524000880217303F0EF0361F3451320466373AE
:1035340009B0BDE8F08F002AB7D00133DBB2EA5CF2
:103544002C2A04BF0136F6B2ACE713460121B0E7DA
:103554004FF00008C2E70127591CC9B2695C6E2903
:1035640053D0752956D06329C9D1991CC9B2695C55
:1035740040298CBF3D395D39C9B2033389F8001045
:103584008DF81F309DF81F004FF0000E2B5C411C7E
:10359400202B5FFA81FC4AD0BEF1000F01D08DF8D8
:1035A4001F00722B01BFC9B28DF81F106B5C4FF066
:1035B400010B712B07D19DF81F300133DBB28DF85D
:1035C4001F30EB5C01223A3B012B9DF81F3032D8AF
:1035D4000499C4F804A00978C4F80880013B0B449A
:1035E40004990B709DF804302370637B6BF3000324
:1035F40062F3410303F0FB0367F3C3030021DBB26F
:103604006180217343F010038EE7991CC9B2695C91
:103614003039B2E702330DF11F01284605928DF8C7
:103624001F30FFF716FF059A89F80000AAE76046E5
:103634004FF0010EAAE703998E42C9D9E95C2E29FD
:1036440016D101330DF11F01284605928DF81F3064
:10365400FFF7FFFE009B03449BB20093029BBDF85F
:1036640000201A809DF81F30059A01338DF81F3011
:10367400029B02330293039B0133DBB2039309F1F0
:10368400010935E72DE9F04F834689B04FF49A706C
:103694001C4691468A4600F0E1FF12994FF000085B
:1036A400064601F0BEF858468DF81F80FCF790FDE1
:1036B40005465046FCF78CFD01904846FCF788FD12
:1036C40007462046FCF784FD019A2A4405323A4411
:1036D4000244D7B2384600F0C1FF3A460546414697
:1036E40000F0CCFF5946284601F08CF85146284694
:1036F40001F088F84946284601F084F82146284616
:1037040001F080F802AC43469DF81F20002008E039
:1037140002F1010EBCF16D0F5FFA8EFE08D0724605
:10372400012015F802C0BCF16B0F05EB0201EFD1CB
:1037340008B18DF81F200DF11F02204603F1010985
:10374400FFF7A8FE94E80F0006EB091A0AF1040E2D
:103754008EE80F004B460C2BD6D14FF0000A8DF8A3
:103764001FA09DF81F30002206E0581CBEF16D0F0B
:10377400C0B209D0034601221398139910F803E04C
:10378400BEF16B0F1944F0D10AB18DF81F300AF164
:103794000D0E0DF11F02204606EB0E19FFF77AFEFF
:1037A40094E80F000AF1010A09F1040EBAF1040FBA
:1037B4008EE80F00D5D14FF000098DF81F909DF8C9
:1037C4001F30002206E0581CBEF16D0FC0B209D0B4
:1037D400034601221498149910F803E0BEF16B0F0C
:1037E4001944F0D10AB18DF81F3009F1110E0DF111
:1037F4001F02204606EB0E18FFF74CFE94E80F005C
:1038040009F1010908F1040EB9F1020F8EE80F0065
:10381400D5D1284600F02AFF304609B0BDE8F08F24
:1038240010B5411E04464FF0604311F8012F52B900
:103834002046FCF7CDFC214682B20A230948BDE8A4
:103844001040FEF765BCD3F8800EC007EDD5D3F861
:10385400000EC007E9D5186808B11A70E5E700BF83
:10386400F9E700BF70030020184BF0B51D694378D9
:103874000488C3F30113D9B203EB4303DBB2072774
:10388400C4F30B029F40C5F3021596B205FA03F385
:1038940022EA07021343C3F30B039E42224663F357
:1038A4000B0218BF037A028018BF43F00303427867
:1038B40018BF03724B1C03F0030363F30512427039
:1038C400012202FA03F3014A5361F0BD00000240F1
:1038D400144B1B6903F00303022B12D0032B1BD0E0
:1038E400012B0DD1437813F0C00F09D0027A42F0B6
:1038F400060202728278013282706FF3871343707A
:103904007047437813F0C00FFAD0027A42F00602EF
:1039140002728278013AEFE74378012262F3871357
:10392400EDE700BF0004024010B5FFF79DFFFFF76D
:10393400CFFF037A9B0742BF4FF080435B6AC360AB
:1039440010BD10B5102000F089FE0288047A6FF3D0
:103954000B0200210280C2F3052261F305124270BA
:1039640061F303044FF0804281700472526A8180D3
:10397400C180C26010BD00002DE9F341008801231D
:103984008DF80030C0F30B0000238DF801308DF862
:1039940002308DF803308DF80430002840F08C801C
:1039A400022301F11405002201EB0210013290F808
:1039B400210010F0200F27D0608801EB021E013097
:1039C40060809EF8110040072C461DD49EF80460C8
:1039D40006F00F00012817D0AF68300937F810C07F
:1039E4006F88BC4510D9042B0ED8013000F00F00AD
:1039F40060F307168EF804606E68365C02A81844FB
:103A0400013300F8086CDBB2122A05F11005CBD1A2
:103A1400052269462A48FFF77EF902B0BDE8F08125
:103A24006A1C7F0801EB02123842744692F811C0F6
:103A340030D00CF0240CBCF1200F17D001EB051C86
:103A44009CF8218048F020088CF8218092F804C06A
:103A54006FF3071C82F804C0DEF8042092F800C05B
:103A640002AA1A44013302F808CCDBB220EA0700A8
:103A7400AEF1100E013D042B02D80DB10028CFD1B8
:103A8400013E16F0FF068CD001F1D40E0C254FF444
:103A94008057F0E71CF0040F05D1127902F00F0CE7
:103AA400BCEB121FE4D101EB051292F821C06FF3B5
:103AB400451C82F821C0DBE70C260223E4E700BFA3
:103AC4005004002030B5302299B00DEB02001424CC
:103AD400002100F0D3FD2246002102A800F0CEFD13
:103AE4002246002107A800F0C9FD0025224B0095BD
:103AF4001A6C42F080521A641B6C204A03F0805303
:103B04000093009B0195136823F4404343F400435E
:103B14001360136803F440430193019B09230C933E
:103B24004FF480330D93012311934FF480031393C7
:103B3400192314934FF490731593042302241693BA
:103B44000CA8062317931294FDF718FD0F23029374
:103B540021464FF4805302A80593039404950695D7
:103B6400FDF7E0FE4FF4007307A807940A93FDF7EE
:103B74009BFF19B030BD00BF003802400070004008
:103B84002DE9F04F9FB00024BB4DBC4FFCF7D4FC93
:103B9400FFF798FF142200210EA800F06FFD08948F
:103BA4002B6BB74843F004032B632B6B03F0040324
:103BB4000893089B09942B6B43F080032B632B6BB6
:103BC40003F080030993099B0A942B6B43F00103D0
:103BD4002B632B6B03F001030A930A9B0B942B6B4F
:103BE40043F002032B632B6B03F0020322460B9377
:103BF40040F20F114FF001090B9BFCF763FF0F23F9
:103C04000EA99F480E934FF00208CDF83C901094F3
:103C14001194FCF789FE70230EA999480E93CDF8F0
:103C240040800F94FCF780FE03230EA995480E9361
:103C3400CDF840900F94FCF777FE4FF480730EA9F3
:103C44008F480E93CDF83C90CDF844801094FCF747
:103C54006BFE06942B6B43F480032B632B6B03F4F2
:103C640080030693069B07942B6B43F400132B638A
:103C74002B6B854D03F40013224621460793112034
:103C8400079BFCF7ABFC1120FCF7DCFC2246214629
:103C94003A20FCF7A3FC3A20FCF7D4FC2146224648
:103CA4004620FCF79BFC4620FCF7CCFC7748784A7E
:103CB400784B846080E80C004FF480430361C46057
:103CC40044618461C4610462FCF702FF7248734B6F
:103CD400046180E818007F2310268360FF23C360FB
:103CE40044618461FDF7B0FF324621460EA800F01E
:103CF400C5FC6B4B0C944FF4E15B85E8080828463F
:103D04004FF6FF73EB604FF4805A0D94AC602C6156
:103D14006C61AC61FEF746F80EA92846CDF838A0D0
:103D2400FEF764F80CA928460C960D94FEF7F2F8F9
:103D34005C49BC604FF4E13387E80A0038460C2341
:103D44007B61FC603C61BC61FC61FEF7B3F900F08F
:103D540049FA32462146544E0EA800F08FFC4FF02B
:103D6400804386E80808304642F21073F360B4607A
:103D74003461B4610C940D94FEF714F80EA9304626
:103D8400CDF838A0FEF732F820230CA930460C9366
:103D94000D94FEF7BFF8224644494548FEF7CDFF8F
:103DA40044494348FEF7DEFF4148FEF7E2FF642042
:103DB4008DF830908DF814808DF831408DF83240B4
:103DC4008DF833408DF834408DF81540FCF7E0FB56
:103DD400E923424605A936488DF81530FEF79BFFC6
:103DE4001E20FCF7D5FB424605A931488DF8154045
:103DF400FEF791FF1E20FCF7CBFB05220CA92C48F3
:103E04008DF831408DF83240FEF785FF1E20FCF717
:103E1400BFFB05220CA926488DF831408DF83240AD
:103E2400FEF779FF2846FDF75DFF3846FEF742F9B5
:103E34003046FDF7B7FF3046FDF754FF40222146D8
:103E44000EA800F01BFC1C49DFF87C800EA800F0D3
:103E5400E8FC0EA8FFF7E4FC2B6828465C62FDF73B
:103E640041FFFFF76EFD154B0293154B0193154B64
:103E7400009306462AE000BF003802407003002089
:103E84000000024000040240D00300205C02002035
:103E940000540040801A0600B003002000280040AF
:103EA400000001400010014010040020180100200F
:103EB40050040020580000205C480008AD48000869
:103EC400BA480008CF48000812010020104B114ADC
:103ED40011491248FFF7D6FBA94607462A68516ADA
:103EE400B8F800309BB2994206D954624846FDF7AF
:103EF400F9FE3046FFF718FD337A1B07EED039463A
:103F04003046FFF739FD337A6FF303033372E5E785
:103F14006648000877480008874800089B4800085E
:103F24007047000082B00C4B002100915A6C42F49F
:103F340080425A645A6C02F480420092009A0191C1
:103F44001A6C42F080521A641B6C03F08053019384
:103F5400019B02B0704700BF0038024070B50646AE
:103F640088B01422002103A800F088FB3268204B9B
:103F74009A423BD100251F4C0195236B1E4843F008
:103F840002032363236B03F002030193019BC02309
:103F9400039312230493012305930323069303A994
:103FA40004230793FCF7C0FC0295236C134943F4E4
:103FB40000132364236C124C03F400130293029B3A
:103FC400E56040234FF0007284E80E0020464FF471
:103FD400806323616561A561E56125626562FCF723
:103FE4006BFB08B1FFF79CFF7463A66308B070BD58
:103FF400005400400038024000040240A060024027
:10400400FC0100200268034B9A4202BF024B0122CA
:104014001A607047002800403C0E47420368114A6A
:10402400934282B00DD1002300930F4B5A6C42F09F
:1040340001025A645B6C03F001030093009B02B01D
:104044007047B3F1804FFAD100230193064B1A6CE9
:1040540042F001021A641B6C03F001030193019BFB
:10406400EDE700BF000001400038024070B506468D
:1040740088B01422002103A800F000FB32682E4B04
:104084009A4257D1002503F5943301955A6C2B4875
:104094002B4C42F010025A645A6C02F01002019246
:1040A400019A02951A6B42F001021A631B6B03F02A
:1040B40001030293029B4FF4C0630393022304930E
:1040C400012305930323069303A907230793FCF70E
:1040D4002BFC1C4BA5604FF0006C84E808102046B4
:1040E4004FF48063E56023616561A561E561256244
:1040F4006562FCF7E1FA08B1FFF712FF7463124B33
:10410400A663124C4FF000654FF0400E84E828403F
:104114004FF4806200232046E36022616361A3615F
:10412400E36123626362FCF7C7FA08B1FFF7F8FEA4
:104134003463A66308B070BD001001400000024063
:104144001003002040640240B8640240B002002022
:104154007047FEE7FEE7FEE7FEE7704770477047EB
:10416400FCF704BA0148FCF725BB00BFFC010020A2
:104174000148FCF71FBB00BF100300200148FCF7F7
:10418400F9BD00BFEC0600200148FCF713BB00BFDB
:10419400B002002008B50A4B1968024609B909495A
:1041A40019601868694602448A4206D900F02CFA5C
:1041B4000C2303604FF0FF3008BD1A6008BD00BF38
:1041C400EC010020F80C0020054BD3F8882042F4C1
:1041D4007002C3F888204FF000629A60704700BFF5
:1041E40000ED00E008B500220B490C48FEF7A5FDE0
:1041F40008B1FFF795FE0A490848FEF7B3FD08B178
:10420400FFF78EFE0548FEF7B4FD18B1BDE808407F
:10421400FFF786BE08BD00BF18010020500400202F
:104224005800002030B5044689B01422002103A8A8
:1042340000F024FA2368B3F1A04F2ED1184C19488A
:1042440000250195236B43F001032363236B03F0E3
:1042540001030193019B4FF4C0530393022304937E
:104264000323069303A90A230793FCF75DFB636BFF
:1042740043F0800363630295636C43F48043636497
:10428400636C03F48043029343202A462946029B2D
:10429400FCF7A4F94320FCF7D5F909B030BD00BF01
:1042A400003802400000024000F57171D0F80404A7
:1042B400FEF776BD1C2303FB0103D0F80404D3F8F6
:1042C4000822FEF79ABD1C2303FB0103D0F8040463
:1042D4009A6CFEF7CCBDD0F80404FEF75DBEC3684B
:1042E400022B10B5044601D0FFF71AFED4F80404DB
:1042F4000121FEF73FFED4F80404BDE81040FEF7A8
:1043040012BE000010B50446D0F80404FEF735FED2
:104314002268D2F8003E43F00103C2F8003E236A4B
:1043240023B1034A136943F00603136110BD00BFB0
:1043340000ED00E0D0F80404FEF728BED0F8040431
:10434400FEF738BED0F80404FEF732BED0F80404F9
:10435400FEF732BED0F80404FEF730BE08B502788A
:1043640032BB144B0421C3F80404C0F898324FF054
:10437400A04083E8030002211846D9601A619961BC
:10438400DA611A625A62DA621A63FCF74DFC08B108
:10439400FFF7C6FD80210748FDF7EAF84022002117
:1043A4000448FDF7C4F8802201210248FDF7BFF854
:1043B400002008BDEC06002008B5D0F89802FCF7F0
:1043C400BAFC03289ABF024B185C022008BD00BF48
:1043D400F348000810B51C46D0F89802134622464C
:1043E400FCF796FF03289ABF014B185C022010BD0E
:1043F400F348000808B5D0F89802FCF7BEFF03287C
:104404009ABF024B185C022008BD00BFF3480008A5
:1044140008B5D0F89802FDF71EF803289ABF024B9E
:10442400185C022008BD00BFF348000808B5D0F8A6
:104434009802FDF74AF803289ABF024B185C022041
:1044440008BD00BFF348000811F0800FD0F898327F
:104454004FF01C021BBF01F07F0102FB013102FB84
:10446400013191F83E0008BF91F8FE017047000049
:1044740008B5D0F89802FCF737FF03289ABF024B1F
:10448400185C022008BD00BFF348000808B5D0F846
:104494009802FCF7C0FF03289ABF024B185C022065
:1044A40008BD00BFF348000808B5D0F89802FCF72F
:1044B4008EFF03289ABF024B185C022008BD00BF80
:1044C400F348000812230B80004870473401002091
:1044D40004230B800048704748010020002330B5B6
:1044E4001D46DCB2A24200D830BD040F092C94BF93
:1044F4003034373401F8134001EB43040001657094
:104504000133EEE71A2310B50B80094B1868083302
:104514001B68C0180AD0074B07491C680822FFF71C
:10452400DDFF042205492046FFF7D8FF044810BDEB
:10453400107AFF1F147AFF1F4E0100205E01002035
:104544004C01002010B5044C04480A462146FEF7ED
:1045540031FF204610BD00BFF40A002010490008B6
:1045640010B5044C04480A462146FEF723FF2046B2
:1045740010BD00BFF40A00202349000810B5044C04
:1045840004480A462146FEF715FF204610BD00BF29
:10459400F40A0020F748000810B5044C04480A4601
:1045A4002146FEF707FF204610BD00BFF40A002095
:1045B40002490008DFF834D0002103E00C4B5B58BB
:1045C400435004310B480C4B42189A42F6D30B4A21
:1045D40002E0002342F8043B094B9A42F9D3FFF767
:1045E400F3FD00F017F8FFF7CBFA70470000012045
:1045F400A849000800000020CC010020CC010020C4
:10460400F80C0020FEE70000014B1868704700BF5B
:104614006801002070B50D4E0D4CA41BA41000259C
:10462400A54209D10B4E0C4C00F006F9A41BA410B2
:104634000025A54205D170BD56F8253098470135AF
:10464400EEE756F8253098470135F2E7A04900080F
:10465400A0490008A0490008A4490008024B0146EB
:10466400186800F061B800BF68010020024B0146E1
:10467400186800F00BB800BF68010020024403462C
:10468400934200D1704703F8011BF9E738B505469A
:10469400002945D051F8043C0C1F002BB8BFE41886
:1046A40000F0C7F81F4A1368104633B963601460FA
:1046B4002846BDE8384000F0BDB8A3420CD92168B3
:1046C4006218934204BF1A685B68636004BF52189F
:1046D40022600460ECE713465A680AB1A242FAD990
:1046E40019685818A0420BD1206801445818824216
:1046F4001960DDD1106852685A6001441960D7E727
:1047040002D90C232B60D3E7206821188A4204BF06
:1047140011685268626004BF091821605C60C7E7D1
:1047240038BD00BFF001002070B5CD1C25F0030595
:1047340008350C2D38BF0C25002D064601DBA94297
:1047440003D90C233360002070BD00F072F8234AB3
:104754001468214691B9224C23681BB9304600F0F5
:1047640041F820602946304600F03CF8431C26D12D
:104774000C233360304600F05DF8E4E70B685B1B04
:104784001AD40B2B0FD90B60CD50CC18304600F047
:1047940051F804F10B00231D20F00700C31A1BD0AD
:1047A4005A42E25070BD8C420DBF63684B6863602F
:1047B400136018BF0C46E9E70C464968CAE7C41CF5
:1047C40024F00304A04205D0211A304600F00AF870
:1047D4000130CDD02560D9E770BD00BFF0010020C5
:1047E400F401002038B5064C002305460846236032
:1047F400FFF7D0FC431C02D1236803B12B6038BD02
:10480400F40C002010B50246134601321C78002C2B
:10481400FAD1013B11F8012B03F8012F002AF9D139
:1048240010BD034611F8012B03F8012B002AF9D11E
:104834007047704770470000F8B500BFF8BC08BC6B
:104844009E467047F8B500BFF8BC08BC9E4670474A
:104854000006101600061016626F6F7465642075EA
:1048640070006B7535353B6B7534303B6B7531318E
:10487400363B006B7537363B6B7536383B6B75359D
:10488400363B006B7537343B6B75482E352C6B63A8
:10489400693B6B753737006B753132383B6B753854
:1048A400323B6B753132393B006B753132383B6BBF
:1048B400753132393B006B7537393B6B7538303B9A
:1048C4006B7538313B6B7538323B0054657374201B
:1048D4006C61796F75740000000000000000000135
:1048E4000203040607080900000000010203040093
:1048F40002010248494420436F6E666967004849D3
:104904004420496E746572666163650053544D6951
:1049140063726F656C656374726F6E696373004470
:1049240065787353746D333266344D6163726F709E
:1049340061640000000000000000000000000000AE
:104944000000000000000000000000000000000063
:104954000000000000000000000000000000000053
:104964000000000000000000000000000000000043
:104974000000000000000000000000000000000033
:104984000000000000000000000000000000000023
:04499400000000001F
:084998007CB8FF7F0100000064
:0449A000B901000851
:0449A4009501000871
:1049A800010000001000000005010906A1018501B1
:1049B800050775019508190429E7150025018102E5
:1049C80095037508150025640507190029658100F8
:1049D800C0050C0901A1018502050C150025FF750C
:1049E80001950809B509B609B709B809CD09E20959
:1049F800E909EA8102C00000F12C0008D12C000866
:104A0800FD2B00080000000000000000E52B000856
:104A1800000000000000000000000000000000008E
:104A2800CD2B0008C12B0008D92B0008F12B00085A
:104A380009022200010100E032090400000103001C
:104A48000100092111010001224E0007058103051B
:104A5800000A000009022200010100E032090400F6
:104A6800000103010100092111010001224E000784
:104A78000581030500070000092111010001224EEC
:104A8800000000000A0600020000004001000000CB
:104A980009022200010100E03209040000010301BB
:104AA8000100092111010001224A000705810305BF
:104AB800000A14000024F400C9440008D544000882
:104AC8004945000865450008094500088145000872
:104AD8009D450008120100020000004083042B5786
:104AE8000002010203010000040309041A03000084
:104AF80000000000000000000000000000000000AE
:104B080000000000000000006C0100200000000010
:104B18005849000878490008384900080000000092
:104B2800000000000000000000000000000000007D
:104B3800000000000000000000000000000000006D
:104B4800000000000000000000000000000000005D
:104B5800000000000000000000000000000000004D
:0C4B680000000000000000000000000041
:04000005080045B9F1
:00000001FF
