:020000040800F2
:10000000000001206D4E0008D1490008D3490008C6
:10001000D5490008D7490008D94900080000000068
:10002000000000000000000000000000DB490008A4
:10003000DD49000800000000DF490008E149000830
:10004000BD4E0008BD4E0008BD4E0008BD4E000864
:10005000BD4E0008BD4E0008BD4E0008BD4E000854
:10006000BD4E0008BD4E0008BD4E0008BD4E000844
:10007000BD4E0008BD4E0008BD4E0008BD4E000834
:10008000BD4E0008E9490008BD4E00080000000010
:10009000000000000000000000000000BD4E00084D
:1000A000BD4E0008BD4E0008BD4E0008BD4E000804
:1000B000BD4E0008BD4E0008BD4E0008BD4E0008F4
:1000C000BD4E0008BD4E0008BD4E0008BD4E0008E4
:1000D000BD4E0008BD4E0008BD4E000800000000E7
:1000E000BD4E0008BD4E0008BD4E000800000000D7
:1000F000000000000000000000000000BD4E0008ED
:1001000000000000BD4E0008BD4E0008BD4E0008B6
:1001100000000000000000000000000000000000DF
:10012000BD4E0008BD4E0008F9490008BD4E00084C
:10013000BD4E0008000000000000000000000000AC
:10014000000000000000000000000000094A000854
:10015000BD4E0008BD4E0008194A0008BD4E0008FB
:10016000BD4E0008BD4E0008000000000000000069
:10017000000000000000000000000000000000007F
:1001800000000000BD4E000800000000000000005C
:04019000BD4E000858
:1001940010B5054C237833B9044B13B10448AFF3BD
:1001A40000800123237010BDCC010020000000005A
:1001B400F050000808B5034B1BB103490348AFF3E3
:1001C400008008BD00000000D0010020F0500008AD
:1001D400034613F8012B002AFBD1181A0138704783
:1001E40053B94AB9002908BF00281CBF4FF0FF319A
:1001F4004FF0FF3000F07AB9ADF1080C6DE904CE90
:1002040000F006F8DDF804E0DDE9022304B07047ED
:100214002DE9F0478C460D460446089E002B51D12B
:100224008A4217466DD9B2FA82FEBEF1000F0BD096
:10023400CEF1200C01FA0EF520FA0CFC02FA0EF7AE
:100244004CEA050C00FA0EF44FEA174A250CBCFBE5
:10025400FAF81FFA87F90AFB18CC45EA0C4508FBA3
:1002640009F3AB420AD9ED1908F1FF3280F023817A
:10027400AB4240F22081A8F102083D44ED1AA4B239
:10028400B5FBFAF00AFB105544EA054400FB09F9F2
:10029400A14509D9E41900F1FF3380F00A81A14591
:1002A40040F2078102383C44A4EB090440EA0840C8
:1002B4000021002E61D024FA0EF400233460736010
:1002C400BDE8F0878B4207D9002E54D0002186E880
:1002D40021000846BDE8F087B3FA83F1002940F015
:1002E4008E80AB4202D3824200F2FA80841A65EB1C
:1002F40003050120AC46002E3FD086E81010BDE86F
:10030400F08712B90127B7FBF2F7B7FA87FEBEF1FF
:10031400000F34D1EB1B3A0C1FFA87FC0121B3FB0D
:10032400F2F8250C02FB183345EA03450CFB08F3ED
:10033400AB4207D9ED1908F1FF3002D2AB4200F20B
:10034400D1808046ED1AA3B2B5FBF2F002FB105542
:1003540043EA05440CFB00FCA44507D9E41900F169
:10036400FF3302D2A44500F2B8801846A4EB0C0473
:1003740040EA08409DE731463046BDE8F087CEF1BB
:10038400200405FA0EF307FA0EF720FA04F83A0CE3
:1003940025FA04F448EA0308B4FBF2F14FEA1845DD
:1003A40002FB11441FFA87FC45EA044501FB0CF3E8
:1003B400AB4200FA0EF409D9ED1901F1FF3080F0D7
:1003C4008A80AB4240F2878002393D44EB1A1FFA1F
:1003D40088F5B3FBF2F002FB103345EA034500FB5A
:1003E4000CF3AB4207D9ED1900F1FF386FD2AB42E1
:1003F4006DD902383D44EB1A40EA01418FE7C1F15F
:10040400200722FA07F88B4005FA01F448EA0303AF
:1004140020FA07FE4FEA134CFD404EEA040EB5FBEA
:10042400FCF94FEA1E440CFB19551FFA83F844EA01
:10043400054509FB08F4AC4202FA01F200FA01FA9C
:1004440008D9ED1809F1FF3043D2AC4241D9A9F1E2
:1004540002091D442D1B1FFA8EFEB5FBFCF00CFB9C
:1004640010554EEA054400FB08F8A04507D9E418E6
:1004740000F1FF3529D2A04527D902381C4440EAAF
:100484000940A4EB0804A0FB02894C45C6464D462E
:1004940015D312D056B1BAEB0E0364EB050404FA7B
:1004A40007F7CB401F43CC40376074600021BDE8A0
:1004B400F0871846F8E69046E0E6C245EAD2B8EB83
:1004C400020E69EB03050138E4E72846D7E7404606
:1004D40091E78146BEE7014678E702383C4445E7A8
:1004E400084608E7A8F102083D442BE7704700BF1F
:1004F40010B504460E4B18784FF47A73B3FBF0F33F
:100504000C4A1068B0FBF3F000F0AAF868B90F2C9D
:1005140001D9012010BD002221464FF0FF3000F028
:100524005FF8054B1C60002010BD012010BD00BF0A
:1005340000000020140100200400002008B50B4B2B
:100544001A6842F400721A601A6842F480621A60EF
:100554001A6842F480721A60032000F02FF8002019
:10056400FFF7C6FF04F010F9002008BD003C02406C
:10057400034A1168034B1B780B441360704700BF98
:10058400F801002000000020014B1868704700BFEC
:10059400F801002038B50446FFF7F6FF0546B4F12C
:1005A400FF3F02D0044B1B781C44FFF7EDFF401BB8
:1005B4008442FAD838BD00BF00000020074AD3683F
:1005C40023F4E0631B041B0C000200F4E0601843F6
:1005D40040F0BF6040F40030D060704700ED00E0B0
:1005E40030B4164BDB68C3F30223C3F10704042CB5
:1005F40028BF04241D1D062D17D9033B012505FA28
:1006040004F4013C2140994005FA03F3013B1340F3
:10061400194300280BDB0901C9B200F1604000F561
:10062400614080F8001330BC70470023E6E700F017
:100634000F000901C9B2024B1954F4E700ED00E0C0
:1006440014ED00E0002808DB420900F01F0001233C
:1006540003FA00F0014B43F82200704700E100E088
:100664000138B0F1807F0AD2064B5860F021064A67
:1006740082F823100020986007221A607047012036
:10068400704700BF10E000E000ED00E00268D3B264
:10069400103B0B49A1FB03131B090A49C95CC16543
:1006A400032B06D822F47F7222F003028265806D48
:1006B400704722F47F7222F0030204328265F6E767
:1006C400ABAAAAAA08510008836A826992B9012BCD
:1006D4000AD01BB1022B01D000207047C36A13F06B
:1006E400807F2CD100207047C36AB3F1C07F28D02B
:1006F40000207047B2F5005F05D0022B29D9032BE7
:1007040015D000207047032B03D8DFE803F01C0446
:100714001C0A00207047C36A13F0807F15D10020A3
:100724007047C36AB3F1C07F11D000207047C36A19
:1007340013F0807F01D00120704700207047012012
:100744007047012070470120704701207047012045
:10075400704701207047000070B50446FFF714FF8E
:10076400002C5DD00546002384F83430022384F83D
:1007740035302268136823F00103136023681A6874
:1007840012F0010F0AD0FFF7FFFE401B0528F5D930
:1007940020236365032084F8350070BD1A6821495D
:1007A40011406268A0680243E06802432069024382
:1007B40060690243A0690243E0690243206A02437C
:1007C4000A43616A042916D01A602668756925F0FF
:1007D4000705636A1D43042B12D075612046FFF799
:1007E40055FFE26D3F239340836000206065012341
:1007F40084F8353070BDE16A206B01430A43E3E7B6
:10080400A36A1D43E36A002BE7D02046FFF75CFF91
:100814000028E2D040236365012084F8350070BDD0
:10082400012070BD3F8010F0F0B583B00446002372
:100834000193724B1D68724BA3FB0535AD0A876D9E
:100844003E68C26D082393401E4210D003681A68A4
:1008540012F0040F0BD01A6822F004021A60C26D61
:1008640008239340BB60436D43F001034365E26D8D
:10087400012393401E4209D02268526912F0800F6E
:1008840004D0BB60636D43F002036365E26D04232F
:1008940093401E4209D02268126812F0020F04D05D
:1008A400BB60636D43F004036365E26D1023934002
:1008B4001E4224D02268126812F0080F1FD0BB60B9
:1008C40023681A6812F4802F0DD01B6813F4002FCC
:1008D40004D1236C9BB12046984710E0A36C73B1FC
:1008E400204698470BE01A6812F4807F03D11A68F7
:1008F40022F008021A60236C0BB120469847E26D7F
:10090400202393401E4255D02268126812F0100F23
:1009140050D0BB6094F83530DBB2052B0ED0236881
:100924001A6812F4802F33D01B6813F4002F2AD1D5
:10093400636C002B3ED0204698473BE02268136846
:1009440023F0160313602268536923F08003536174
:10095400236CA3B12268136823F008031360E26DCB
:100964003F239340BB60002384F83430012384F890
:100974003530236D002B3FD0204698473CE0A36CD4
:10098400002BE7D1EBE7E36BA3B12046984711E0D6
:100994001A6812F4807F09D11A6822F010021A60D2
:1009A400002384F83430012384F83530E36B0BB131
:1009B40020469847636DFBB1636D13F0010F17D0A8
:1009C400052384F835302268136823F0010313608B
:1009D400019B013301939D4204D323681B6813F0E8
:1009E400010FF5D1002384F83430012384F8353025
:1009F400E36C0BB12046984703B0F0BD140100200E
:100A0400B5814E1B00230F2B00F2CD80F0B583B0CF
:100A140095E085684FEA430E032707FA0EF725EAA7
:100A24000705CE6806FA0EF635438560456825EA63
:100A340002024D68C5F300159D402A434260C66812
:100A44005F000322BA40D24316408D68BD402E4356
:100A5400C6604D68022D00F08480122D00F0818064
:100A640005682A404D6805F00305BD402A4302602D
:100A74004A6812F0805F5FD0002201924A4A556CA6
:100A840045F480455564526C02F480420192019A07
:100A94009D08AE1C454A52F8262003F00306B60012
:100AA4000F27B74022EA0702414FB84271D007F539
:100AB4008067B8426FD007F58067B8426DD007F5FC
:100AC4008067B8426BD007F58067B8425FD00727CC
:100AD40007FA06F632430235344E46F82520354AE5
:100AE4001568E24305EA02064F6817F4803F01D017
:100AF40044EA05062F4D2E606D6802EA05064F682C
:100B040017F4003F01D044EA05062A4D6E60AD6833
:100B140002EA05064F6817F4801F01D044EA05066F
:100B2400244DAE60ED682A404E6816F4001F01D0D3
:100B340044EA05021F4CE26001330F2B31D8012235
:100B44009A400C681440A242F6D14D686E1E012EE4
:100B54007FF65FAF112D3FF45CAF122D7FF46FAFC2
:100B640057E74FEAD30E0EF1080E50F82E5003F05B
:100B7400070C4FEA8C0C0F2606FA0CF625EA06053C
:100B84000E6906FA0CF6354340F82E5068E7042740
:100B94009EE700279CE701279AE7022798E70327A7
:100BA40096E703B0F0BD70470038024000380140BA
:100BB40000000240003C014012B909048161704701
:100BC40081617047002800F0C880F8B5044690F8A9
:100BD4003D30002B75D0242384F83D3022681368FF
:100BE40023F0010313602268136843F40043136085
:100BF4002268136823F40043136001F061F962680A
:100C0400584B9A4262D8584B98428CBF0023012318
:100C1400002B40F0A480554BA3FB00239A0C2168C1
:100C24004B6823F03F0313434B602568296A21F086
:100C34003F0166684B4B9E424ED8531C0B432B62BC
:100C44002268D16921F44F4121F0FF016368454DC9
:100C5400AB424BD801385B00B0FBF3F30133C3F371
:100C64000B03042B38BF04230B43D36121680B68A7
:100C740023F0C003E269206A024313430B60216836
:100C84008B6823F4034323F0FF032269E0680243E3
:100C940013438B602168CB6823F0FF036269A0696A
:100CA40002431343CB602268136843F001031360CB
:100CB40000202064202384F83D30206384F83E0023
:100CC400F8BD80F83C3003F07BFD84E7284B984264
:100CD4008CBF002301239BE74FF4967303FB02F3BD
:100CE400244AA2FB03239B090133A7E7A668BEB9E4
:100CF400451E03EB4307B5FBF7F50135C5F30B05BB
:100D0400B5FA85F56D0935BBC6B9013803EB430364
:100D1400B0FBF3F30133C3F30B0343F40043A3E742
:100D2400451E03EB830707EB8707B5FBF7F5013592
:100D3400C5F30B05B5FA85F56D09E4E7013803EB56
:100D4400830303EB8303B0FBF3F30133C3F30B031C
:100D540043F4404388E7012386E7012070470120DC
:100D6400F8BD00BFA08601007F841E0083DE1B4304
:100D7400FF083D00D34D62102DE9F04782B0D0F852
:100D84000080CA00521A930003445A6D1B6D9A42A4
:100D940055D8C1469B1AC1EBC104A2000244526C4F
:100DA400934200D81A460C46074602F1030A4FEA5A
:100DB4009A0A15E006F1030A4FEA9A0AE3001B1B9C
:100DC4009D003D44A96C3B7C0093B3B2E2B2404623
:100DD40001F08AFFAB6C3344AB646B6D1E446E65EB
:100DE40009EB441303F510639B699BB29A4512D82F
:100DF400E3001B1B9A003A44516D136D99420AD2C9
:100E04004BB15B1AC4EBC4018A003A44566CB3423A
:100E1400D0D81E46CEE7E3001B1B980007443A6D6A
:100E24007B6D9A420FD804F00F040123A340D8F835
:100E3400344824EA0304C8F83448002000E00120C0
:100E440002B0BDE8F0870020FAE7F0B58BB00028C7
:100E540000F08A800446056890F8BD3323B3032369
:100E640084F8BD33EB6B13F4807F01D1002323613D
:100E7400206801F0EBFC254655F8107B6E460FCD3B
:100E84000FC60FCD0FC695E8030086E80300231DA7
:100E94000ECB384601F018FC58B1022384F8BD3358
:100EA400012528460BB0F0BD80F8BC3303F006FEE4
:100EB400D5E70021206801F0CFFC002315E0D9001C
:100EC400C81A82002244012082F83D0082F83C3096
:100ED400A2F84230002082F83F0050649064CA1A9D
:100EE4009100214408650133DBB26568AB42E6D367
:100EF400002315E0D800C11A8A002244002182F898
:100F0400FD1182F8FC3182F8FF11C2F80412C2F814
:100F14000812C21A90002044C0F810120133DBB248
:100F24009D42E7D8254655F8107B6E460FCD0FC677
:100F34000FCD0FC695E8030086E80300231D0ECBF2
:100F4400384601F0CFFC054620B1022384F8BD33B6
:100F54000125A6E7002384F83830012384F8BD3343
:100F6400206802F06EF89CE701259AE7026890F881
:100F7400BC33012B19D010B5012380F8BC33836A2C
:100F8400012B0AD00446006802F04FF8206801F0F3
:100F940057FC002084F8BC0310BD8369012BF1D0F9
:100FA400936B43F480339363ECE7022070470000B3
:100FB40070B505460E460368196C03EB461303F53A
:100FC4003064A3680269012A07D0364A914257D097
:100FD400F1B203F0BDFD002070BD13F0080F14D072
:100FE400314A914205D913F4004F02D04FF4004323
:100FF400A360284603F0A4FD05F571720121286859
:1010040002F07CF80823A360E5E713F0200F30D149
:1010140013F0280FDFD1244A914202D913F4004F70
:101024002AD1F200921B93002B44D3F804222169A5
:10103400C1F31201521AC3F81422D3F80412D3F8DC
:1010440008220A44C3F80822F1B2284603F080FDBE
:10105400002EC0D1C6EBC606B3002B44D3F8103221
:10106400002BB8D105F571720121286802F046F809
:10107400B1E72023A360AEE74FF40043A360AAE7DF
:1010840013F4004F09D113F0200F01D02023A360E3
:10109400F1B2284603F05CFD9DE74FF40043A360E2
:1010A40099E700BF0A31544F0A30544F38B504460B
:1010B40003681D6C03EB411101F530618A68036913
:1010C400012B0DD0124B9D4214D0204603F038FD65
:1010D400104B9D4202D92369012B12D0002038BD48
:1010E4000C4B9D42F1D912F4004FEED04FF4004363
:1010F4008B60EAE712F4004FE7D04FF400438B60B3
:10110400E3E704F571720121206801F0F7FFE5E7D8
:101114000A31544F0A30544F2DE9F84F04460568FC
:10112400284601F0CAFF08B1BDE8F88F2F460646ED
:10113400206801F092FF0028F6D0206801F08DFFAE
:1011440010F0020F04D02268536903F002035361C4
:10115400206801F082FF10F4002F74D1206801F0A0
:101164007CFF10F4802F40F0C280206801F075FFEE
:101174000028C0F23481206801F06FFF10F4006F82
:101184000AD0D5F8083813F0010F40F042812268E4
:10119400536903F400635361206801F05EFF10F4A7
:1011A400805F40F03A81206801F057FF10F4005F3F
:1011B40040F08D81206801F050FF10F0100F14D022
:1011C4002268936923F0100393612E6A06F00F07D7
:1011D400C6F34343022B00F09281062B00F0B0814A
:1011E4002268936943F010039361206801F035FF8E
:1011F40010F0080F40F0B681206801F02EFF10F4C3
:10120400801F40F0B881206801F027FF10F4001F10
:1012140040F0BB81206801F020FF10F0804F40F0C7
:10122400BE81206801F019FF10F0040F3FF47CAF79
:1012340023685D6815F0040F40F0BA8123685A688A
:1012440015435D6070E7206801F00BFF8046B146EE
:1012540025E007EB49130122C3F8082B4946204631
:10126400FFF7A6FE2BE049462046FFF71FFF07EBDA
:1012740049130822C3F8082B24E007EB4913202262
:10128400C3F8082B1AF4005F05D007EB49134FF499
:101294000052C3F8082B09F101094FEA5808B8F1C4
:1012A400000F3FF45BAF18F0010FF4D05FFA89F13F
:1012B400206801F0E6FE824610F0010FC9D11AF051
:1012C400080FD0D11AF0100F04D007EB49131022E5
:1012D400C3F8082B1AF0200FD4D02369012BCCD1EA
:1012E40004F571720121206801F008FFC5E7206848
:1012F40001F0BFFE8046B14631E04FEAC902A2EBDD
:10130400090293002344596C9A6C0A449A6449E094
:101314001AF0080F04D007EB49130822C3F8082970
:101324001AF0100F04D007EB49131022C3F8082950
:101334001AF0400F04D007EB49134022C3F80829E0
:101344001AF0020F04D007EB49130222C3F808294C
:101354001AF0800F3ED109F101094FEA5808B8F19B
:10136400000F3FF402AF18F0010FF4D05FFA89FBCD
:101374005946206801F08EFE824610F0010FC7D056
:1013840009F00F03012101FA03F2D7F8343823EAF4
:101394000203C7F8343807EB4913C3F80819236963
:1013A4008B42AAD05946204603F0DEFB2369012B69
:1013B400AED1B9F1000FABD1C9EBC90293002344FC
:1013C4001B6D002BA4D104F571720121206801F07A
:1013D40095FE9DE749462046FFF7CEFCBBE7D5F8CE
:1013E400043823F00103C5F8043894F8F433012BCE
:1013F40008D0204603F0F2FB2268536903F000434F
:101404005361B8E6002184F8F413204600F058FA3A
:10141400F2E7204603F0CAFBB9E605F50068D8F800
:10142400043023F00103C8F804301021206801F0CF
:101434002BFA14E007EB46134FF67F31C3F8081973
:10144400D3F8002922F40012C3F80029C3F8081BBA
:10145400D3F8002B22F40012C3F8002B0136636882
:101464009E42E7D3D8F81C3043F00113C8F81C306F
:10147400236BEBB1D8F8843043F00B03C8F8843005
:10148400D8F8443043F00B03C8F84430D5F800389A
:1014940023F4FE63C5F8003804F57172217C2068DA
:1014A40001F02CFE2268536903F4805353617AE6F9
:1014B400D8F8143043F4005343F02B03C8F8143025
:1014C400D8F8103043F00B03C8F81030DEE720687A
:1014D40001F0F7FD206801F0D5FAE060266800F01D
:1014E400E9FC227B0146304601F034F9204603F042
:1014F4004CFB2268536903F4005353615AE647F6E0
:10150400F0731E423FF46CAE4FEAC709A9EB070320
:101514004FEA8308A0443609C6F30A02D8F8081231
:10152400284601F003FDC6F30A06D8F8083233440E
:10153400C8F80832D8F814321E44C8F814624FE6CA
:10154400082204F57171284601F0F0FCC6F30A166E
:10155400FB00D91B8A002244D2F814321E44C2F87C
:1015640014623DE6204603F00AFB2268536903F047
:101574000803536140E60021204603F03BFB226848
:10158400536903F4801353613DE60021204603F0C0
:101594002BFB2268536903F4001353613AE6204697
:1015A40003F02EFB2268536903F08043536138E64D
:1015B400204603F02BFB41E690F8BC33012B01D10C
:1015C4000220704710B50446012380F8BC3380F82C
:1015D4003810006801F019FD002084F8BC0310BD28
:1015E400F8B511F0800F1ED101F00F06F500AF1B06
:1015F400BC00274604F5FC74044404343E46064407
:10160400002586F8FD5101F00F012170A260E370FE
:10161400627802B1E180022B14D090F8BC33012B24
:1016240013D10220F8BD01F00F06F500AF1BBC007A
:1016340027463834044404343E460644012586F8DB
:101644003D50E0E700232371E7E70546012380F8D6
:10165400BC332146006801F026FA002085F8BC035B
:10166400F8BD38B511F0800F17D101F00F04E20076
:10167400151BAB001D4603F5FC73034404332C46D1
:101684000444002284F8FD2101F00F01197090F840
:10169400BC23012A10D1022038BD01F00F04E2005E
:1016A400151BAB001D463833034404332C46044455
:1016B400012284F83D20E7E70446012280F8BC2398
:1016C4001946006801F03AFA002084F8BC0338BDDA
:1016D40070B501F00F05EE00711B8C0004F5FC746D
:1016E4000444211D761BB4000444C4F80822C4F841
:1016F40010320023C4F8143284F8FD3184F8FC510C
:101704000369012B06D065B1DAB2006801F000FB71
:10171400002070BDC5EBC506B4000444C4F80C2217
:10172400F1E7DAB2006801F051FAF1E770B501F0BF
:101734000F05EE00711B8C0038340444211D761B08
:10174400B4000444A264236500236365012384F880
:101754003D3084F83C500369012B06D05DB1DAB208
:10176400006801F0D5FA002070BDC5EBC506B400D1
:101774000444E264F2E7DAB2006801F027FAF2E71F
:1017840038B501F00F0543689D4238D811F0800F39
:1017940015D1CA00541AA3001C4603F5FC73034474
:1017A400043322460244002182F8FD1101229A707A
:1017B4001D7090F8BC23012A0DD1022038BDEA0027
:1017C400511B8B001946383303440433014401226E
:1017D40081F83D20EAE70446012280F8BC2319463B
:1017E400006801F0B7FB1DB1002084F8BC0338BDCC
:1017F40004F57172217C206801F080FCF4E701207B
:1018040038BD01F00F03426893422FD810B511F090
:10181400800F14D1DA00D41AA1000C4601F5FC7132
:10182400014404310444002284F8FD2100228A701A
:101834000B7090F8BC33012B0DD1022010BDDA00DF
:10184400D41AA1000C463831014404310444012265
:1018540084F83D20EAE70446012380F8BC3300689D
:1018640001F0A5FB002084F8BC0310BD01207047E3
:1018740030B40468606A29B10D46A36A00EB1340D2
:1018840000230CE040EA0240A06212E003F14001B0
:1018940004EB8101496800EB11400133DBB2691E9E
:1018A4008B42F3D340EA024005F13F0104EB81018E
:1018B4004860002030BC70470368596200207047BC
:1018C40070470000002800F0E48170B582B004463F
:1018D400036813F0010F3BD0A74B9B6803F00C0384
:1018E400042B2CD0A44B9B6803F00C03082B21D0B1
:1018F4006368B3F5803F4FD0B3F5A02F52D09E4B11
:101904001A6822F480321A601A6822F480221A605B
:101914006368002B50D0FEF737FE0546964B1B68D4
:1019240013F4003F14D1FEF72FFE401B6428F5D9B1
:101934000320B3E1904B5B6813F4800FD8D08E4B37
:101944001B6813F4003F03D06368002B00F0A381ED
:10195400236813F0020F55D0874B9B6813F00C0FCC
:101964003ED0854B9B6803F00C03082B33D0E3680F
:10197400002B68D00122814B1A60FEF705FE054654
:101984007D4B1B6813F0020F54D1FEF7FDFD401B85
:101994000228F5D9032081E1774A136843F48033A0
:1019A4001360B5E7744B1A6842F480221A601A680F
:1019B40042F480321A60ABE7FEF7E6FD05466E4B53
:1019C4001B6813F4003FC3D0FEF7DEFD401B642800
:1019D400F5D9032062E1684B5B6813F4800FC6D12C
:1019E400654B1B6813F0020F04D0E368012B01D090
:1019F400012053E1604A136823F0F803216943EAA4
:101A0400C1031360236813F0080F40D0636963B304
:101A140001225B4B1A60FEF7B7FD0546564B5B6F20
:101A240013F0020F33D1FEF7AFFD401B0228F5D9A6
:101A3400032033E1504A136823F0F803216943EA91
:101A4400C1031360DEE700224C4B1A60FEF79CFDD5
:101A54000546494B1B6813F0020FD3D0FEF794FDE3
:101A6400401B0228F5D9032018E10022444B1A60D8
:101A7400FEF78AFD0546404B5B6F13F0020F06D05C
:101A8400FEF782FD401B0228F5D9032006E12368F6
:101A940013F0040F79D0384B1B6C13F0805F33D1F3
:101AA40000230193344B1A6C42F080521A641B6C6D
:101AB40003F080530193019B0125324B1B6813F4FF
:101AC400807F23D0A368012B34D0052B38D02A4B38
:101AD4001A6F22F001021A671A6F22F004021A67C1
:101AE400A368002B36D0FEF74FFD0646224B1B6F32
:101AF40013F0020F48D1FEF747FD801B41F28833F3
:101B04009842F3D90320C9E00025D6E71D4A13689B
:101B140043F480731360FEF737FD0646194B1B68C8
:101B240013F4807FCED1FEF72FFD801B0228F5D958
:101B34000320B3E0104A136F43F001031367CFE7A8
:101B44000D4B1A6F42F004021A671A6F42F0010239
:101B54001A67C5E7FEF718FD0646074B1B6F13F01F
:101B6400020F11D0FEF710FD801B41F2883398421A
:101B7400F3D9032092E000BF00380240000047423E
:101B8400800E474200700040EDB9A369002B00F0BD
:101B94008480454A926802F00C02082A51D0022B34
:101BA40017D00022414B1A60FEF7EEFC04463E4B70
:101BB4001B6813F0007F42D0FEF7E6FC001B0228EE
:101BC400F5D903206AE0384A136C23F08053136478
:101BD400DBE70022354B1A60FEF7D6FC0546324B94
:101BE4001B6813F0007F06D0FEF7CEFC401B0228D2
:101BF400F5D9032052E0E369226A1343626A43EA97
:101C04008213A26A5208013A43EA0243E26A43EAAF
:101C14000263254A53600122244B1A60FEF7B4FC88
:101C24000446214B1B6813F0007F06D1FEF7ACFC81
:101C3400001B0228F5D9032030E000202EE000200C
:101C44002CE0012B2CD0184B9B6803F48001E26933
:101C5400914201D0012021E003F03F02216A8A422F
:101C640001D001201AE0616A47F6C0721A408A4224
:101C740001D0012012E003F44032A16A8A4201D06B
:101C840001200BE003F07063E26A93420AD0012062
:101C940004E001207047012000E0002002B070BD84
:101CA4000120FBE70020F9E70038024060004742CA
:101CB400F8B5254B9B6803F00C03042B41D0082B8B
:101CC40001D02248F8BD204B5A6802F03F025B68FD
:101CD40013F4800F12D01C4B5968C1F388110023F0
:101CE4001B48A1FB0001FEF77BFA174B5B68C3F3AB
:101CF400014301335B00B0FBF3F0F8BD124B5B68AA
:101D0400C3F388131E4600275C010025E41A65EB23
:101D14000705A90141EA9461A001001B61EB0501DB
:101D2400CB0043EA5073C400A01943EB07018B02B4
:101D340043EA90538402204619460023FEF750FAE2
:101D4400D3E70348F8BD00BF003802400024F40084
:101D540040787D01002800F09E8070B50446504B09
:101D64001B6803F00F038B4209D2CBB24C4A1370A9
:101D7400136803F00F03994201D0012070BD23685A
:101D840013F0020F17D013F0040F04D0454A9368E0
:101D940043F4E0539360236813F0080F04D0414ADE
:101DA400936843F4604393603E4A936823F0F003DE
:101DB400A068034393600D46236813F0010F32D0EB
:101DC4006368012B21D09A1E012A25D9354A12684D
:101DD40012F0020F61D033498A6822F003021343E0
:101DE4008B60FEF7D1FB06462E4B9B6803F00C0379
:101DF4006268B3EB820F16D0FEF7C6FB801B41F27C
:101E040088339842F0D9032070BD264A126812F430
:101E1400003FE0D1012070BD224A126812F0007F19
:101E2400D9D1012070BD1E4B1B6803F00F039D42E6
:101E340009D2EAB21A4B1A701B6803F00F039D42D1
:101E440001D0012070BD236813F0040F06D0154A99
:101E5400936823F4E053E1680B439360236813F021
:101E6400080F07D00F4A936823F46043216943EABB
:101E7400C1039360FFF71CFF0A4B9B68C3F3031372
:101E8400094AD35CD840094B1860094B1868FEF71F
:101E94002FFB002070BD01207047012070BD00BFE2
:101EA400003C024000380240945100081401002014
:101EB40004000020014B1868704700BF1401002083
:101EC40008B5FFF7F7FF044B9B68C3F38223034A6B
:101ED400D35CD84008BD00BF00380240A4510008BC
:101EE40008B5FFF7E7FF044B9B68C3F34233034A8B
:101EF400D35CD84008BD00BF00380240A45100089C
:101F040030B583B00446036813F0050F0ED123687F
:101F140013F0020F36D1236813F0080F00F09980F4
:101F2400227C4D4B1A60002003B030BD00224B4B85
:101F34001A60FEF729FB0546494B1B6813F0006F36
:101F440006D0FEF721FB401B0228F5D90320EBE75E
:101F54006268A3681B0743EA8213414AC2F88430CB
:101F640001223E4B1A60FEF70FFB05463C4B1B68F3
:101F740013F0006FCBD1FEF707FB401B0228F5D905
:101F84000320D1E700230193354B1A6C42F08052B1
:101F94001A641B6C03F080530193019B314A13684C
:101FA40043F480731360FEF7EFFA05462D4B1B686C
:101FB40013F4807F06D1FEF7E7FA401B0228F5D917
:101FC4000320B1E7264B1B6F13F4407312D0E26871
:101FD40002F4407293420DD0214B1A6F22F44072E6
:101FE400214901200860002008601A671B6F13F064
:101FF400010F12D1E36803F44072B2F5407F1DD0A3
:10200400174A936823F4F813936015490B6FE26839
:10201400C2F30B0213430B677DE7FEF7B5FA0546DF
:102024000F4B1B6F13F0020FE4D1FEF7ADFA401B08
:1020340041F288339842F3D9032075E708498A6846
:1020440022F4F81223F0704323F4407313438B609B
:10205400DBE7002068E700BFE01147426800474221
:102064000038024000700040400E474238B5044634
:102074000268D36823F0A003D360FEF785FA05460F
:102084002368DB6813F0200F07D1FEF77DFA401BAD
:10209400B0F57A7FF4D9032038BD002038BD38B5B7
:1020A4000368DA6812F0400F01D0002038BD0446FE
:1020B4004FF0FF32DA60FEF767FA05462368DB6803
:1020C40013F0400F07D1FEF75FFA401BB0F57A7F9B
:1020D400F4D9032038BD002038BD38B500285CD0C1
:1020E4000446437F002B41D0022363772368CA222E
:1020F4005A62236853225A622046FFF7D0FF0546EE
:10210400002837D12268936823F4E00323F04003C6
:10211400936021688A6863682069034360690343A4
:1021240013438B602368E2681A6122681369A1680B
:1021340043EA014313612268D36823F08003D36028
:1021440023689B6813F0200F1BD02268136C23F4C0
:10215400802313642268136CA1690B4313642368FE
:10216400FF225A6201236377284638BD037702F0C1
:102174007FFBB9E72368FF225A62042363770125B2
:10218400F2E72046FFF772FF0028DED02368FF2223
:102194005A62042363770125E6E70125E4E710B4D6
:1021A400036A046A24F001040462846924F0F004DC
:1021B40044EA021223F00A030B43826103625DF8CE
:1021C400044B704710B4036A23F01003036284695C
:1021D400036A24F4704444EA023223F0A00343EA7D
:1021E4000113826103625DF8044B7047836823F036
:1021F4007003194341F0070181607047022380F89E
:102204003D300268936803F00703062B03D013687C
:1022140043F001031360012380F83D300020704730
:102224000368254A90420ED0B0F1804F0BD0A2F53E
:102234007C42904207D002F58062904203D002F5BE
:102244008062904203D123F070034A6813431A4A10
:1022540090421AD0B0F1804F17D0A2F57C42904240
:1022640013D002F5806290420FD002F58062904252
:102274000BD002F59A32904207D002F58062904268
:1022840003D002F58062904203D123F44073CA68FC
:10229400134323F080034A69134303608B68C362CA
:1022A4000B688362044B984202D001234361704758
:1022B4000B690363F9E700BF00000140A8B110B542
:1022C400044690F83D305BB1022384F83D30211D73
:1022D4002068FFF7A5FF012384F83D30002010BDDE
:1022E40080F83C3002F0D2FAEEE70120704710B4D7
:1022F400846824F47F4442EA032319430C43846032
:102304005DF8044B704790F83C30012B66D010B553
:102314000446012380F83C30022380F83D300268F3
:10232400936823F47F4323F0770393600B68402B77
:102334004AD013D9602B3DD01ED9702B28D0B3F5C9
:10234400005F30D1CB684A6889680068FFF7CFFF27
:102354002268936843F48043936024E0102B06D0F2
:1023640004D9202B03D0302B01D01CE0DBB9194653
:102374002068FFF73BFF16E0502B14D1CA68496868
:102384000068FFF70CFF50212068FFF72FFF0AE0D9
:10239400CB684A6889680068FFF7A9FF22689368D8
:1023A40043F077039360012384F83D30002084F8E0
:1023B4003C0010BDCA6849680068FFF703FF60214C
:1023C4002068FFF713FFEEE7CA6849680068FFF763
:1023D400E6FE40212068FFF709FFE4E7022070478A
:1023E40090F83C30012B33D030B4012380F83C30DA
:1023F400022380F83D3004686368A26823F0700308
:102404000D682B4363600368124CA34212D0B3F1EE
:10241400804F0FD0A4F57C44A3420BD004F5806414
:10242400A34207D004F58064A34203D004F59A3490
:10243400A34204D122F0800249680A439A6001232E
:1024440080F83D30002380F83C30184630BC70479B
:102454000220704700000140F8B504460268136981
:1024640023F44053C1680B43136183680269134327
:1024740042691343C26913430168CA6822F41642CD
:1024840022F00C021343CB600268536923F44073B7
:1024940081690B435361C369B3F5004F34D00368BA
:1024A400604A934200F0928002F58062934200F009
:1024B4008D80FFF705FD25680021061841EB010713
:1024C40036184F41FB0043EA5673F20016461F4686
:1024D40063689A009B0F80197941FDF781FE524C85
:1024E400A4FB00325109642202FB110213013233AE
:1024F400A4FB03235B0903F0F00202EB011203F0D7
:102504000F031344AB60F8BD0368464A934230D0CE
:1025140002F5806293422CD0FFF7D2FC256800219B
:10252400061841EB010736184F41FB0043EA567386
:10253400F20016461F466268002392185B41801918
:102544007941FDF74DFE384CA4FB00325109642259
:1025540002FB1102D3003233A4FB03235B095A00AC
:1025640002F4F87202EB011203F007031344AB60A8
:10257400F8BDFFF7B5FC25680021061841EB0107FB
:1025840036184F41FB0043EA5673F20016461F46C5
:102594006268002392185B4180197941FDF720FE9F
:1025A400214CA4FB00325109642202FB1102D30026
:1025B4003233A4FB03235B095A0002F4F87202EBE2
:1025C400011203F007031344AB60F8BDFFF788FC66
:1025D40025680021061841EB010736184F41FB001E
:1025E40043EA5673F20016461F4663689A009B0F2F
:1025F40080197941FDF7F4FD0B4CA4FB003251091D
:10260400642202FB110213013233A4FB03235B098E
:1026140003F0F00202EB011203F00F031344AB606A
:10262400F8BD00BF001001401F85EB5158B310B531
:10263400044690F839300BB3242384F839302268E7
:10264400D36823F40053D3602046FFF705FF2268C4
:10265400136923F4904313612268536923F02A0316
:1026640053612268D36843F40053D3600020E063CD
:10267400202384F8393084F83A3010BD80F838309B
:1026840002F02CF9D8E70120704700000023013341
:102694000C4A934211D80269002AF8DA036943F01C
:1026A4000103036100230133064A934207D80269F8
:1026B40012F0010FF7D10020704703207047032068
:1026C400704700BF400D030084B010B5044603A852
:1026D40080E80E00089B012B0DD0E36843F0400313
:1026E400E3602046FFF7D2FF0C9B23BBA36B43F4AC
:1026F4008033A36313E0A36B23F48033A363E36801
:1027040023F4840323F04003E360E36823F44013D9
:10271400E3600F9B012B09D02046FFF7B7FF069B10
:10272400012B0DD0BDE8104004B07047E36843F4BA
:102734008013E360F0E7A36B23F48033A363EEE735
:10274400A36843F00603A360A36843F02003A360D7
:10275400E8E70000022A0AD00921C26822F4705274
:10276400C260C36843EA8123C360002070472A4BD8
:102774000B442A4A93423FD9294B0B44294A93429A
:102784003CD9A1F57403A3F51053274A934237D9D2
:10279400A1F18373A3F5E74302F5C332A032934258
:1027A40030D9224B0B44224A93422DD9214B0B445E
:1027B40002F5922202F57872934227D91E4B0B44FC
:1027C40002F5C32202F52072934221D9A1F1B77315
:1027D400A3F5585302F5B71202F55872934219D96A
:1027E400164B0B4402F5122202F5F862934201D90A
:1027F4000621B2E70721B0E70F21AEE70E21ACE7CF
:102804000D21AAE70C21A8E70B21A6E70A21A4E7DA
:102814000921A2E70821A0E7405327FFFF340C0059
:10282400401E1BFF3F420F007F4F120060B6E5FEC3
:102834005FE3160000D3CEFEC05BB3FEE05459FE46
:10284400836843F00103836000207047836823F0AA
:10285400010383600020704708B5C36823F0C043B8
:10286400C360012909D069B9C36843F08043C360D8
:102874003220FDF78FFE002008BDC36843F00053EB
:10288400C360F5E7012008BD890141F02001016121
:1028940000230133054A934205D8026912F0200F40
:1028A400F7D1002070470320704700BF400D03009C
:1028B4001023036100230133054A934205D80269BA
:1028C40012F0100FF7D1002070470320704700BFAB
:1028D400400D0300D0F800381943C0F80018002058
:1028E4007047000084B02DE9F041044607A880E851
:1028F4000E002546002306E003F1400204EB8202A9
:102904000021516001330E2BF6D9119B73BBA36BCD
:1029140043F40013A363A36B23F40023A363A36B07
:1029240023F48023A3630023C4F8003E04F5006667
:10293400D4F80038C4F800380C9B012B1FD00321B5
:102944002046FFF7C7FF10212046FFF79DFF804672
:1029540008B14FF001082046FFF7AAFF08B14FF075
:102964000108002333617361F3611FE0236823F4DA
:1029740000132360A36B43F40023A363D3E7099BF1
:1029840023B900212046FFF7A5FFDCE701212046FB
:10299400FFF7A0FFD7E7C3B94FF00060C2F8000902
:1029A40000220A614FF67F328A60013307998B4215
:1029B40010D205EB431202F51061D2F80009002889
:1029C400E9DB0020C2F80009EAE74FF09040C2F8C2
:1029D4000009E5E700230AE0BBB14FF09047C2F8D5
:1029E400007B002202614FF67F32826001338B420A
:1029F40010D205EB431202F53060D2F8007B002FB1
:102A0400EADB0027C2F8007BEBE74FF00067C2F86F
:102A1400007BE6E7336923F4807333610A9B012B5F
:102A24001BD00022A2616FF0804262611BB9A369CE
:102A340043F01003A361A269104B1343A3610D9BE0
:102A44001BB1A36943F00803A361119B012B0DD0B3
:102A54004046BDE8F04104B07047094A3263326B26
:102A640042F4803242F003023263DAE7A36943F0AE
:102A7400804343F00403A361EAE700BF00383C80CD
:102A840000018000D0F8083813F0060307D0022BA9
:102A940007D0062B01D00F2070470220704700207A
:102AA40070470220704770B40B784A78012A22D00C
:102AB400D0F81C2803F00F060124B44042EA044273
:102AC400C0F81C2800EB4310D0F8003B13F4004F6F
:102AD4000ED1D0F8003B8A68C2F30A02C97842EAF0
:102AE4008142134343F0805343F40043C0F8003B56
:102AF400002070BC7047D0F81C4803F00F06B240A9
:102B040092B22243C0F81C2800EB4310D0F80029ED
:102B140012F4004FECD1D0F800298C68C4F30A04F5
:102B2400C97844EA814444EA8353134343F080530D
:102B340043F40043C0F80039DAE7000070B40C78BD
:102B44004B78012B1FD0D0F83C5804F00F0601221B
:102B540002FA06F625EA0645C0F83C58D0F81C5897
:102B6400097801F00F018A4025EA0242C0F81C28C6
:102B740000EB4410D0F8002B124B1340C0F8003B7C
:102B8400002070BC7047D0F83C6804F00F0203FAD0
:102B940002F292B226EA0202C0F83C28D0F81C28BD
:102BA400097801F00F018B409BB222EA0303C0F8BD
:102BB4001C3800EB4410D0F80029034B1340C0F834
:102BC4000039DDE70078F3EF007833EC70B40B786C
:102BD4004C78012C26D000EB431000F530631C69BF
:102BE400E40CE4041C611C6924F0FF5424F4C014B4
:102BF4001C614C690CB18C684C611C6944F4002460
:102C04001C611C698D68C5F312052C431C61012AE3
:102C140065D0D0F8003B43F00443C0F8003B0020EB
:102C240070BC70474C696CBB00EB4314D4F810596A
:102C340025F0FF5525F4C015C4F81059D4F81059DF
:102C440045F40025C4F81059D4F81059ED0CED04DE
:102C5400C4F81059012A33D000EB4313D3F80029E8
:102C640042F00442C3F800294B69002BD7D0D0F8B6
:102C74003428097801F00F040121A1400A43C0F867
:102C84003428CCE700EB431404F510642569ED0CFB
:102C9400ED042561256925F0FF5525F4C01525614E
:102CA4004E698D68AE4200D94D61256945F4002511
:102CB400256125694E69C6F3120635432561C9E7C6
:102CC4000A691AB100EB4311C1F8142900EB43104F
:102CD400D0F8002942F00442C0F800299FE7CA68EE
:102CE400002A96D05A6194E770B49DF80C4064B9F8
:102CF40003339E0807E000EB023303F5805351F8D9
:102D0400045B1D600134B442F5D3002070BC7047ED
:102D1400F0B583B00C784B78012B2BD000EB441426
:102D240004F530631D69ED0CED041D611D6925F08A
:102D3400FF5525F4C0151D614D69002D40F0C58077
:102D44001D698E68C6F3120635431D611D6945F47D
:102D540000251D61012A00F0CD80CB78012B00F005
:102D6400CF80D4F8003B43F00443C4F8003B002078
:102D740003B0F0BD4B6983BB00EB4413D3F8105987
:102D840025F0FF5525F4C015C3F81059D3F8105990
:102D940045F40025C3F81059D3F81059ED0CED048F
:102DA400C3F81059012A4CD000EB4414D4F800396C
:102DB40043F00443C4F80039CB78012B6AD04B6943
:102DC400002BD4D0D0F834380A7802F00F01012255
:102DD4008A401343C0F83438C9E700EB4413D3F8EE
:102DE4001059ED0CED04C3F81059D3F8105925F01F
:102DF400FF5525F4C015C3F81059D3F810694D696F
:102E04008F683D44013DB5FBF7F5474F07EAC545DB
:102E14003543C3F81059D3F810594E69C6F3120656
:102E24003543C3F8105903F51063CD78012DB9D19A
:102E34001D6925F0C0451D611D6945F000551D61E2
:102E4400B0E70B691BB100EB4412C2F81439CB781C
:102E5400012B08D000EB4414D4F8003943F00443A8
:102E6400C4F8003983E7D0F8083813F4807F08D118
:102E740000EB4412D2F8003943F00053C2F8003991
:102E8400E8E700EB4412D2F8003943F08053C2F86B
:102E94000039DFE7D0F8083813F4807F0ED1D4F876
:102EA400003943F00053C4F8003914460B46C9688E
:102EB4001A789B8A0094FFF717FF58E7D4F8003973
:102EC40043F08053C4F80039EFE78E683544013D80
:102ED400B5FBF6F51E69144F07EAC5473E431E616C
:102EE4001F698E68ADB206FB05F5C5F312053D43B7
:102EF4001D612FE7CA68002A3FF42FAF5A612CE7FF
:102F0400D0F8083813F4807F06D1D4F8003B43F09E
:102F14000053C4F8003B24E7D4F8003B43F080534B
:102F2400C4F8003B1DE700BF0000F81F03329208FD
:102F3400002393420CD210B400F58054246841F865
:102F4400044B01339342F7D308465DF8044B7047B2
:102F5400084670470B784A78012A14D000EB4310D6
:102F6400D0F8002B002A06DB2BB1D0F8003B23F06D
:102F74008043C0F8003BD0F8003B43F40013C0F892
:102F8400003B0020704700EB4310D0F80029002AD2
:102F940006DB2BB1D0F8003923F08043C0F80039A8
:102FA400D0F8003943F40013C0F80039E9E70B788E
:102FB4004A78012A0ED000EB4310D0F8003B23F4EA
:102FC4000013C0F8003BCB78023BDBB2012B15D9D0
:102FD4000020704700EB4310D0F8003923F40013AD
:102FE400C0F80039CB78023BDBB2012BF0D8D0F823
:102FF400003943F08053C0F80039E9E7D0F8003BCA
:1030040043F08053C0F8003BE2E7D0F8003823F4E3
:10301400FE63C0F80038D0F80038090101F4FE61FD
:103024000B43C0F800380020704708B5D0F80438C6
:1030340023F00203C0F804380320FDF7ABFA0020A4
:1030440008BD08B5D0F8043843F00203C0F80438CA
:103054000320FDF79FFA002008BD426980691040F3
:103064007047D0F8183800F50060C0691840000CAB
:103074007047D0F8183800F50060C069184080B275
:10308400704700EB4111D1F8082B00F5006040694E
:103094001040704710B4D0F81028D0F8343801F03C
:1030A4000F04E340DB01DBB2134300EB4111D1F821
:1030B400080918405DF8044B7047406900F00100AE
:1030C4007047D0F8003923F4FF6323F00703C0F8F6
:1030D400003900F500639A6802F00602042A05D05C
:1030E4005A6842F480725A6000207047D0F8002970
:1030F40042F00302C0F80029F2E7000010B4046CA7
:10310400154B9C4203D9D0F8003B002B16DB00245E
:10311400C0F8104BD0F8104B44F40024C0F8104B06
:10312400D0F8104B44F01804C0F8104BD0F8104BF2
:1031340044F0C044C0F8104B012903D000205DF8CE
:10314400044B7047C0F8142BD0F8003B43F08023A5
:10315400C0F8003BF2E700BF0A30544F222303803B
:1031640000487047900000202223038000487047E5
:10317400B40000202223038000487047F0000020A0
:10318400D0F8903200201873704700000A2303809F
:1031940000487047E400002010B582B0D0F8904297
:1031A4000023ADF806300B7813F0600325D0202BF4
:1031B40075D14B78023B092B1BD8DFE803F01409C7
:1031C4001A1A1A1A1A1A0F058B782360002069E05C
:1031D4000122214600F03AFD002063E04B881B0ADF
:1031E400636000205EE00122211D00F02FFD00201D
:1031F40058E000F030FA022054E04B780B2B4AD808
:10320400DFE803F0064949494949154949492E3D32
:1032140090F87432032B03D000F01DFA022041E031
:1032240002220DF1060100F011FD00203AE04B8866
:103234001B0A222B05D0212B0CD000F00CFA022003
:1032440030E0CA884E2A28BF4E22174900F0FEFCFF
:10325400002027E0CA88092A28BF09221349F5E774
:1032640090F87432032B03D000F0F5F9022019E032
:10327400012204F1080100F0E9FC002012E090F8BA
:103284007432032B03D000F0E6F902200AE08B78B5
:10329400A360002006E000F0DEF9022002E000F066
:1032A400DAF9022002B010BD08000020D800002086
:1032B40010B50446812101F016FD0023E362D4F821
:1032C400900220B101F02CFE0023C4F890320020BB
:1032D40010BD10B5044605230322812101F0F8FC3A
:1032E4000123E362102001F013FEC4F8900218B128
:1032F40000230373184610BD022010BD38B5D0F862
:10330400905290F87442032C01D0002038BD2B7BDE
:10331400002BFAD113460A4601212973812101F0B9
:1033240002FDF2E798B108B50346D0F88C0210B15B
:103334000020C3F88C0209B1C3F88812184601238F
:1033440080F87432027001F067FC002008BD02208E
:10335400704719B1C0F88C120020704702207047E2
:1033640008B501F0ADFC002008BD08B5D0F88C32DA
:1033740023B11B68984718B1022008BD022008BD7C
:10338400002008BD08B5D0F88C325B68984700204F
:1033940008BD38B5044600F52075284600F047F905
:1033A4000123C4F86C32B4F88632C4F8703294F84D
:1033B400801201F01F03012B0ED03BB1022B10D061
:1033C40001F08001204601F096FC03E029462046E6
:1033D40000F0B7FA002038BD2946204600F0E5FA8F
:1033E400F8E72946204600F010FBF3E738B5044619
:1033F400A9BB1046D4F86C32032B03D0052B25D07F
:10340400002038BDD4F84C31D4F8502193420DD962
:103414009B1AC4F84C319A4206D99AB20146204606
:1034240000F029FC002038BD92B2F7E7D4F88C32C2
:103434001B691BB194F87422032A04D0204600F0BF
:1034440022FC002038BD20469847F7E70025C4F841
:103454006C522946204601F04EFC284638BD0A46E7
:10346400D0F88C329B694BB190F87412032901D0C7
:10347400022038BD11469847002038BD022038BDCF
:1034840010B50446002954D11046D4F86C32022BEE
:103494000CD0042B00D01BB98021204601F02BFC5A
:1034A40094F87832012B40D0002010BD236A626A60
:1034B40093421BD8E169B1FBF2F302FB13132BB95E
:1034C4008A4203D8D4F8703299421DD3D4F88C328E
:1034D400DB681BB194F87422032A23D08021204690
:1034E40001F009FC204600F0D9FBD9E79A1A2262C0
:1034F40092B20146204600F0B6FB00231A46194654
:10350400204601F018FCCBE700221146204600F0CB
:10351400AAFB0021C4F870120B460A46204601F0AB
:103524000AFCBDE720469847D8E7002084F87802D3
:1035340010BD0A46D0F88C325B694BB190F8741216
:10354400032901D0022010BD11469847002010BD68
:10355400022010BD70B5044640230022114601F03C
:10356400B7FB0125C4F844514026C4F850613346E2
:1035740000228021204601F0ABFBA561666284F83D
:1035840074520023C4F86C326360C4F87C32D4F8FB
:1035940090322BB1D4F88C325B68002120469847D6
:1035A400002070BD01740020704790F8743280F8D8
:1035B4007532042380F874320020704790F8753215
:1035C40080F874320020704708B590F87432032BE9
:1035D40001D0002008BDD0F88C32DB69002BF8D074
:1035E4009847F6E700207047002070470020704796
:1035F40008B5012280F87422D0F88C22526801792F
:103604009047002008BD002302E00133DBB2013003
:103614000278002AF9D11846704708B54B88012B67
:1036240000D008BDC0F87C3200F02DFBF9E70B7820
:1036340003704B7843708B78CA7803EB0223438082
:103644000B794A7903EB022383808B79CA7903EBE4
:103654000223C380704710B50446802101F04BFB60
:103664000021204601F047FB10BD30B583B005466C
:103674000C464A88130A013B062B00F28480DFE8DB
:1036840003F004162A8282667300D0F888321B681D
:103694000DF10601007C9847BDF8062012B1E388BD
:1036A400002B74D1E388002B7BD003B030BD037CA6
:1036B40043B9D0F88C329B6A0DF106009847022377
:1036C4004370E9E7D0F88C32DB6A0DF106009847C5
:1036D40002234370E0E7D2B2052A34D8DFE802F0CF
:1036E400030B131B232BD0F888325B680DF1060102
:1036F400007C9847D0E7D0F888329B680DF106012A
:10370400007C9847C8E7D0F88832DB680DF10601E1
:10371400007C9847C0E7D0F888321B690DF1060198
:10372400007C9847B8E7D0F888325B690DF1060150
:10373400007C9847B0E7D0F888329B690DF1060108
:10374400007C9847A8E72146FFF785FFADE7037C97
:1037540033B9D0F88C325B6B0DF1060098479BE7C8
:103764002146FFF778FFA0E7037C43B9D0F88C32F9
:103774001B6B0DF106009847072343708CE7214625
:10378400FFF769FF91E72146FFF765FF8DE79A424E
:1037940028BF1A46ADF806200146284600F056FA1E
:1037A40080E7284600F06FFA7FE738B504468B8837
:1037B400F3B9CB88E3B94B887F2B19D803F07F0585
:1037C40090F87432032B0CD080F87652294601F01D
:1037D400A2FA204600F057FA35B1022384F8743275
:1037E40038BDFFF738FF38BD012384F8743238BD83
:1037F4002046FFF730FF38BD38B504460D468978BA
:10380400284B197001290ED890F87432022B0ED06F
:10381400032B21D02946FFF71EFF224B197820469F
:10382400FFF7B0FD38BD2946FFF715FF38BD81B15C
:103834004160032380F87432FFF797FD022803D018
:10384400204600F020FA38BD29462046FFF703FF42
:1038540038BD00F018FA38BD89B1436899421DD0CB
:10386400D9B2FFF78FFD0F4B197861602046FFF73F
:103874007CFD02280DD0204600F005FA38BD022355
:1038840080F874324160FFF77DFD204600F0FBF9BB
:1038940038BD29462046FFF7DEFE38BD00F0F3F9B7
:1038A40038BD00BFE801002008B5CB88012B0BD13F
:1038B40090F874329BB1022B09D9032B0FD101224A
:1038C400011D00F0C3F908BDFFF7C5FE08BD0146A0
:1038D400002341F8083F012200F0B8F908BDFFF7C2
:1038E400BAFE08BD08B590F87432013B022B12D819
:1038F400CB88022B0CD10123C360D0F87C320BB1EE
:103904000323C360022200F10C0100F09FF908BDFB
:10391400FFF7A1FE08BDFFF79EFE08BD08B590F8AD
:103924007432013B022B09D84B88012B00D008BD0F
:103934000023C0F87C3200F0A6F908BDFFF78BFE27
:10394400F5E708B50B7803F06003202B05D0402B76
:1039540003D043B1FFF77FFE03E0D0F88C329B68BD
:103964009847002008BD4B78092B1BD8DFE803F0EB
:1039740011171A141A08051A0E0BFFF776FEF0E752
:10398400FFF713FFEDE7FFF737FFEAE7FFF78CFFD9
:10399400E7E7FFF7A7FFE4E7FFF73FFEE1E7FFF7FD
:1039A400BDFFDEE7FFF757FEDBE738B505460C46FB
:1039B4000B7803F06003202B05D0402B03D013B108
:1039C400FFF749FE0BE095F87432013B022B17D840
:1039D4002379012B05D921462846FFF73CFE002018
:1039E40038BDD5F88C329B68214628469847E38831
:1039F400002BF4D10028F2D1284600F044F9EEE778
:103A040021462846FFF727FEE9E738B504468A88A9
:103A14000B7803F06003202B08D0D0B2402B05D0E4
:103A24005BB12046FFF717FE002038BDD4F88C3276
:103A34009B6820469847002038BD202B12D04B7835
:103A4400012B38D0002B64D0032B40F0DC8094F899
:103A54007432022B0CD0032B1CD02046FFF7FBFD45
:103A6400002038BDD4F88C329B682046984738BD76
:103A740058B1802809D00146204601F03CF9802144
:103A8400204601F038F9002038BD2046FFF7E3FD59
:103A9400002038BD4B8823B918B1802801D0CB88C9
:103AA40023B1204600F0EFF8002038BD014620463F
:103AB40001F021F9F5E794F87432022B06D0032BB8
:103AC40016D02046FFF7C7FD002038BD58B1802826
:103AD40009D00146204601F00EF98021204601F06C
:103AE4000AF9002038BD2046FFF7B5FD002038BD97
:103AF4004B88002B40F08C8010F07F0F04D12046BF
:103B040000F0C1F8002038BD0146204601F0FBF862
:103B1400F5E794F87432022B06D0032B29D0204603
:103B2400FFF799FD002038BD08B1802812D112F0AA
:103B3400800F14D100F07F0000EB8000830003F5B8
:103B4400A073E11800250D600222204600F07EF8E3
:103B5400284638BD2046FFF77EFD002038BD00F022
:103B64007F0000EB8000830003F110012144043145
:103B7400E8E752B2002A1DDB00F00F0303EB8303D6
:103B84009D002544D5F8443113B3002A25DB00F009
:103B94007F0202EB8202930003F5A073E51830B3B1
:103BA400802824D00146204601F06AF840B301235E
:103BB4002B601EE000F00F0303EB83039D002544FC
:103BC400AB69002BE1D12046FFF745FD002038BD4D
:103BD4002046FFF740FD002038BD00F07F0202EBD5
:103BE4008202930003F1100525440435D7E700232E
:103BF4002B6002222946204600F028F8002038BD18
:103C040000232B60F5E72046FFF725FD002038BD93
:103C1400002038BDC8B170B50D4616460446FFF7FE
:103C2400F2FC013040003080287003236B700223C3
:103C340007E05A1CD2B20134E9540233DBB200214A
:103C4400A95421780029F4D170BD704710B51346EA
:103C54000222C0F86C22C36103620A46002101F00B
:103C640062F8002010BD08B513460A46002101F091
:103C74005AF8002008BD08B513460A46002101F091
:103C84005AF8002008BD08B50423C0F86C3200239C
:103C94001A46194601F047F8002008BD08B5052367
:103CA400C0F86C3200231A46194601F044F800208B
:103CB40008BD000070B40C78651CEDB2012305E06A
:103CC4000135EDB203EB83035A0093B2425D303AFF
:103CD400D2B2092AF4D9002609E0303A02FB03667D
:103CE400084AA2FB0323C3F3CF030134E4B2025D09
:103CF400A2F13005EDB2092DEFD90C70304670BC3D
:103D0400704700BFCDCCCCCC2DE9F04782B006463D
:103D14000C46914612788DF807209DF80720A15C87
:103D24006B2907D0752905D09A4203D201328DF848
:103D34000720F2E70132D2B2A15C012702E001328E
:103D4400D2B2A15C3B2908D039B1501C984204DAA4
:103D54002C29F4D10137FFB2F1E7337867F3030379
:103D64006FF30713337000237380384601F0D0F8E3
:103D74007060012F0FD9781E01F0CAF8B0604FF0BF
:103D8400000886F80C80737B03F0E00368F34513A6
:103D94007373454667E00020F0E7013302A901F898
:103DA400013D2046FFF786FF80441FFA88F8B36878
:103DB40023F815809DF8073001338DF807303378E8
:103DC40003F00F02013262F303033370737B6FF36A
:103DD400820373734DE089F800305CE0727B42F03B
:103DE400080272734EE00133DBB28DF80730E35CF6
:103DF40072685D3B53550135EDB29DF807300133D0
:103E04008DF8073020E00133DBB28DF80730E35C36
:103E14007268303B53550135EDB29DF807300133DC
:103E24008DF8073010E0013302A901F8013DD6F8FE
:103E340004A02046FFF73EFF0AF805000135EDB265
:103E440002E001338DF807309DF80730E25C202A48
:103E5400F7D0722A23D0712A2BD03A3AD2B2012A4F
:103E640033D9AF4231D925B19DF80730E25C2E2A0F
:103E740093D09DF80730E25C6B2A01D06D2AAAD159
:103E84006D2AABD00133DBB2E25C6E2ABBD0752A5B
:103E9400C9D0632AA7D0304602B0BDE8F087727B50
:103EA40042F0010272730133DBB28DF80730E25C39
:103EB400D1E7737B43F0020373739DF8073001333A
:103EC400DBB28DF80730E25CC7E7737B43F0100385
:103ED40073739DF8073089F80030DCE72DE9F04F63
:103EE40089B083468A4600920193139E149F4FF42F
:103EF4009A7001F00DF88046129901F0ECF8002553
:103F04008DF81F505846FCF763F904465046FCF7F9
:103F14005FF90444E4B20098FCF75AF90444E4B2AB
:103F24000198FCF755F904EB00095FFA89F909F1E6
:103F340005095FFA89F9484600F0EAFF04464A4653
:103F4400294600F0F5FF5946204601F0B5F85146E0
:103F5400204601F0B1F80099204601F0ADF801992E
:103F6400204601F0A9F82046FCF732F95FFA80F9FF
:103F74001CE001338DF81F309DF81F30E25C6B2A82
:103F840001D06D2AF5D1013508EB051B0DF1080AA6
:103F94004B460DF11F0221465046FFF7B5FE0BF1CB
:103FA400040E9AE80F008EE80F00EDB20B2DE3D952
:103FB40000258DF81F5021E001338DF81F309DF846
:103FC4001F30F25C6B2A01D06D2AF5D13046FCF724
:103FD400FFF805F10D0E08EB0E190DF1080AC3B236
:103FE4000DF11F0231465046FFF78EFE09F1040E13
:103FF4009AE80F008EE80F000135EDB2032DDED9EB
:1040040000268DF81F6020E001338DF81F309DF8E5
:104014001F30FA5C6B2A01D06D2AF5D13846FCF7C3
:10402400D7F806F1110508EB05150DF10809C3B21F
:104034000DF11F0239464846FFF766FE043599E83C
:104044000F0085E80F000136F6B2012EDFD92046B5
:1040540000F066FF404609B0BDE8F08F08B5084897
:10406400084B03604FF4E133436000238360C36073
:1040740003610C2242618361C361FEF7D7FA08BD74
:104084007003002000100140F0B58BB000240594AB
:10409400069407940894099401942B4B1A6B42F0EC
:1040A40004021A631A6B02F004020192019A029448
:1040B4001A6B42F080021A631A6B02F080020292B9
:1040C400029A03941A6B42F001021A631A6B02F00B
:1040D40001020392039A04941A6B42F002021A63D7
:1040E4001B6B03F002030493049B184D224640F219
:1040F4000F112846FCF760FD0F2305930126069651
:104104000794089405A92846FCF77CFC70230593C2
:1041140006940227079705A92846FCF773FC032396
:1041240005930694079605A90948FCF76BFC4FF420
:104134008073059306960794089705A92846FCF70B
:1041440061FC0BB0F0BD00BF00380240000002402B
:104154000004024010B582B000240094164B1A6B80
:1041640042F480021A631A6B02F480020092009AED
:1041740001941A6B42F400121A631B6B03F40013CC
:104184000193019B224621461120FCF729FA1120B4
:10419400FCF758FA224621463A20FCF721FA3A2045
:1041A400FCF750FA224621464620FCF719FA46202D
:1041B400FCF748FA02B010BD0038024008B50948BF
:1041C400094B0360094B436000238360C3604FF4D1
:1041D4008042026143618361C3610362FCF7F2FCC4
:1041E40008BD00BF5C02002000540040801A060095
:1041F40008B50748074B0360002343607F228260B1
:10420400FF22C260036143618361FDF766FF08BD5D
:10421400B00300200028004030B587B00024029489
:1042240003940494059400940194104D104B2B6056
:104234004FF4E1536B60AC604FF6FF73EB602C619D
:104244006C61AC612846FEF739F84FF48053029351
:1042540002A92846FEF757F81023009301946946F3
:104264002846FEF7BDF807B030BD00BFD0030020DC
:104274000000014030B587B00024029403940494F4
:10428400059400940194104D4FF080432B604FF43B
:10429400E1536B60AC6042F21073EB602C61AC6173
:1042A4002846FEF70BF84FF48053029302A92846E0
:1042B400FEF729F820230093019469462846FEF767
:1042C4008FF807B030BD00BF10040020F0B4194BC4
:1042D4001E69C6F302164178C1F30111CCB201EB99
:1042E4004101C9B20588C5F30B0297B207238B407D
:1042F40022EA0303C3F30B0306FA01F10B43C3F3EE
:104304000B032A4663F30B0202809F4203D0037A15
:1043140043F003030372631C03F00303427863F363
:1043240005124270012202FA03F3024A5361F0BCFF
:10433400704700BF00000240184B1B6903F00303E1
:10434400022B14D0032B22D0012B00D070474378CA
:1043540013F0C00FFAD0037A43F006030372837894
:104364000133837043786FF3871343707047437846
:1043740013F0C00FEAD0037A43F006030372837884
:10438400013B837043786FF387134370704743781E
:10439400012262F387134370D8E700BF0004024090
:1043A40010B50446FFF792FF2046FFF7C5FF237AB6
:1043B40013F0020F03D04FF080435B6AE36010BD3B
:1043C40010B5102000F0A4FD02886FF30B020280E8
:1043D40000218170047A61F303040472C2F305229C
:1043E40061F3051242708180C1804FF08042526AAD
:1043F400C26010BDF0B583B001238DF800300023F6
:104404008DF801308DF802308DF803308DF80430CA
:104414000088C0F30B00002849D1022500234DE099
:1044240001EB031696F8217047F0200786F82170F7
:10443400013201EB021216796FF3071616719268B6
:10444400167802AA2A4402F8086C0135EDB220EA73
:104454000400013BDBB2042DE0D8002BDED00028A1
:10446400DCD064081A46204208D05E1C01EB061614
:10447400767C06F02406202ED2D1E8E75E1C01EB00
:104484000616767C16F0040F08D15E1C01EB0616A6
:10449400367906F00F07B7EB161FDADA01EB0212D2
:1044A40092F821606FF3451682F82160D1E74FF44A
:1044B40080540C230225CEE70133DBB20B2B3CD80E
:1044C4001C4601EB031292F8212012F0200FF3D0C6
:1044D400581C01EB0010C288013292B2C280407CA9
:1044E40010F0040FE8D1581C01EB0010007900F023
:1044F4000F000128E0D001EB0310C669581C01EB42
:1045040000100079000936F8106001369642D3DDB8
:10451400042DD1D8013000F00F00013401EB041454
:10452400227960F307122271A268105C02AA2A445D
:1045340002F8080C0135EDB2BEE7052269460248CF
:10454400FEF7DCFE03B0F0BD5004002030B599B096
:10455400302200210DEB020000F0EAFC0024079455
:10456400089409940A940B94029403940494059473
:1045740006940094214B1A6C42F080521A641B6C0E
:1045840003F080530093009B01941D4A136823F4A5
:10459400404343F400431360136803F4404301931E
:1045A400019B09230C934FF480330D930123119342
:1045B400022512954FF480031393192314934FF497
:1045C4009073159304231693062317930CA8FDF7F1
:1045D40079F90F230793089509944FF480530A93AC
:1045E4000B94294607A8FDF7B5FB02954FF4007319
:1045F400059302A8FDF784FC19B030BD00380240D1
:104604000070004070B588B0FBF798FFFFF79EFF7D
:10461400FFF73AFDFFF79EFDFFF7D0FDFFF7E8FD3A
:10462400FFF7FAFDFFF71AFD00F028FAFFF722FE64
:10463400464D002246492846FEF774FE4549284661
:10464400FEF787FE2846FEF78BFE01238DF818300F
:1046540000248DF819408DF81A408DF81B408DF810
:104664001C4002268DF814608DF815406420FBF779
:1046740091FFE9238DF81530324605A92846FEF747
:104684003DFE1E20FBF786FF8DF81540324605A936
:104694002846FEF733FE1E20FBF77CFF8DF81940F9
:1046A4008DF81A40052206A92846FEF727FE1E208B
:1046B400FBF770FF8DF819408DF81A40052206A902
:1046C4002846FEF71BFE244D2846FDF797FD234898
:1046D400FDF7ACFF224E3046FDF7F0FD3046FDF706
:1046E4008DFD2B685C622846FDF788FDFFF768FEA8
:1046F40004461C4B02931C4B01931C4B00931C4B14
:104704001C4A1D491D48FFF7E9FB054603E0237ACF
:1047140013F00F0F10D1104B1A68516A184B1B88F5
:104724009BB29942F3D9002353620B48FDF766FD0F
:104734002046FFF735FEEAE729462046FFF75AFEF2
:10474400237A6FF303032372E5E700BF50040020CC
:104754001801002058000020D0030020700300201E
:1047640010040020605100087051000888510008AE
:104774001051000824510008345100084C5100081D
:10478400120100207047000082B0002100910B4B01
:104794005A6C42F480425A645A6C02F48042009289
:1047A400009A01911A6C42F080521A641B6C03F057
:1047B40080530193019B02B0704700BF0038024050
:1047C40070B588B00023039304930593069307936D
:1047D4000268224B9A4201D008B070BD04460025FD
:1047E40001951F4E336B43F002033363336B03F0C5
:1047F40002030193019BC023039312230493012317
:104804000593032306930423079303A91548FCF790
:10481400F9F80295336C43F400133364336C03F4F6
:1048240000130293029B1048104B03604FF0007377
:10483400436040238360C5604FF480630361456136
:104844008561C56105624562FBF786FF18B9064BB1
:1048540063639C63C0E7FFF795FFF8E700540040EB
:104864000038024000040240FC010020A060024025
:104874000268044B9A4200D070470122024B1A602E
:10488400FAE700BF002800403C0E474282B00368AC
:10489400104A934204D0B3F1804F0ED002B0704757
:1048A400002300930C4B5A6C42F001025A645B6C77
:1048B40003F001030093009BF0E700230193064BF0
:1048C4001A6C42F001021A641B6C03F00103019399
:1048D400019BE3E7000001400038024030B589B095
:1048E400002303930493059306930793026803F14B
:1048F400804303F588339A4201D009B030BD0446A1
:104904000025019503F594335A6C42F010025A6461
:104914005A6C02F010020192019A02951A6B42F04D
:1049240001021A631B6B03F001030293029B4FF411
:10493400C063039302230493012305930323069383
:104944000723079303A91C48FCF75CF81B481C4B7E
:1049540003604FF0006343608560C5604FF480637B
:10496400036145618561C56105624562FBF7F4FE3B
:10497400D8B9124B63639C631248134B03604FF026
:1049840000634360402383600023C3604FF480626C
:10499400026143618361C36103624362FBF7DCFE2E
:1049A40030B9084B23639C63A7E7FFF7EBFEE0E70E
:1049B400FFF7E8FEF5E700BF000002401003002007
:1049C40040640240B0020020B86402407047FEE731
:1049D400FEE7FEE7FEE770477047704708B5FBF750
:1049E400C7FD08BD08B50248FBF71EFF08BD00BFA0
:1049F400FC01002008B50248FBF716FF08BD00BF04
:104A04001003002008B50248FCF786FB08BD00BF70
:104A1400EC06002008B50248FBF706FF08BD00BFFE
:104A2400B002002008B503460B4A126842B10A4A94
:104A3400106803446A46934206D8074A136008BDC7
:104A44000649054A1160F2E700F038FA0C230360C6
:104A54004FF0FF3008BD00BFEC010020F80C00202F
:104A6400054BD3F8882042F47002C3F888204FF035
:104A740000629A60704700BF00ED00E008B50022B4
:104A84000B490C48FEF74EFC48B90B490948FEF7A0
:104A940060FC38B90748FEF763FC30B908BDFFF77E
:104AA40071FEF2E7FFF76EFEF4E7FFF76BFEF5E742
:104AB40018010020500400205800002030B589B0AF
:104AC4000023039304930593069307930368B3F1B8
:104AD400A04F01D009B030BD00250195164C236BC1
:104AE40043F001032363236B03F001030193019B50
:104AF4004FF4C053039302230493032306930A231E
:104B0400079303A90D48FBF77DFF636B43F0800314
:104B140063630295636C43F480436364636C03F4DE
:104B240080430293029B2A4629464320FBF758FD03
:104B34004320FBF787FDCDE7003802400000024028
:104B440008B500F57171D0F80404FEF722FC08BD25
:104B540008B5C1EBC10293000344D3F80822D0F88E
:104B64000404FEF743FC08BD08B5C1EBC102930081
:104B740003449A6CD0F80404FEF782FC08BD08B51F
:104B8400D0F80404FEF720FD08BD10B50446C36840
:104B9400022B01D0FFF7F6FD0121D4F80404FEF73F
:104BA40001FDD4F80404FEF7D5FC10BD10B504468D
:104BB400D0F80404FEF7F9FC2268D2F8003E43F072
:104BC4000103C2F8003E236A23B1034A136943F088
:104BD4000603136110BD00BF00ED00E008B5D0F876
:104BE4000404FEF7EBFC08BD08B5D0F80404FEF796
:104BF400FBFC08BD08B5D0F80404FEF7F3FC08BDBF
:104C040008B5D0F80404FEF7F1FC08BD08B5D0F8E7
:104C14000404FEF7EDFC08BD03780BB100207047D7
:104C240010B503461548C0F80434C3F898024FF091
:104C3400A0430360042343600222C2600023036193
:104C44008261C36103624362C3620363FCF7FDF8DC
:104C540080B90A4C80212046FCF72EFE4022002118
:104C64002046FCF705FE802201212046FCF700FEC9
:104C7400002010BDFFF786FDEBE700BFEC06002027
:104C8400D0F8983211F0800F08D101F07F01C1EB08
:104C9400C1018A00134493F8FE01704701F07F01BB
:104CA400C1EBC1018A00134493F83E00704718B168
:104CB400022803D00220704700207047012070476B
:104CC40008B5D0F89802FCF751F9FFF7F0FF08BDDA
:104CD40010B51C4613462246D0F89802FCF780FC17
:104CE400FFF7E5FF10BD08B5D0F89802FCF7B9FC52
:104CF400FFF7DDFF08BD08B5D0F89802FCF740FDCA
:104D0400FFF7D5FF08BD08B5D0F89802FCF779FD88
:104D1400FFF7CDFF08BD08B5D0F89802FCF74CFCAE
:104D2400FFF7C5FF08BD08B5D0F89802FCF7FEFCF4
:104D3400FFF7BDFF08BD08B5D0F89802FCF7C8FC22
:104D4400FFF7B5FF08BD000012230B800048704731
:104D54003401002004230B800048704748010020E0
:104D64000023934216D230B40BE0373401F81340D9
:104D740000015C00013400250D550133DBB2934280
:104D840006D2040F092CF0D8303401F81340EFE7B1
:104D940030BC70477047000038B50A4B18680433BC
:104DA4001C6804331B68C01800D138BD064D0822A6
:104DB400A91CFFF7D5FF042205F112012046FFF7D5
:104DC400CFFFF2E7107AFF1F4C01002008B51A2329
:104DD4000B80FFF7E1FF014808BD00BF4C01002034
:104DE40008B50A4628B105490548FEF713FF0348EC
:104DF40008BD02490248FEF70DFFF8E7F40A002057
:104E0400DC51000810B5044C0A4621460348FEF75D
:104E140001FF204610BD00BFF40A0020C85100085D
:104E240008B50A4628B105490548FEF7F3FE0348CC
:104E340008BD02490248FEF7EDFEF8E7F40A002037
:104E4400AC51000808B50A4628B105490548FEF7E3
:104E5400E1FE034808BD02490248FEF7DBFEF8E71D
:104E6400F40A0020B8510008DFF834D0002103E030
:104E74000C4B5B58435004310B480C4B42189A427C
:104E8400F6D30B4A02E0002342F8043B094B9A4252
:104E9400F9D3FFF7E5FD00F017F8FFF7B3FB704710
:104EA400000001206052000800000020CC01002016
:104EB400CC010020F80C0020FEE70000014B18682C
:104EC400704700BF6801002070B50D4E0D4CA41B47
:104ED400A4100025A54209D10B4E0C4C00F006F994
:104EE400A41BA4100025A54205D170BD56F8253099
:104EF40098470135EEE756F8253098470135F2E733
:104F04005852000858520008585200085C520008D1
:104F1400024B0146186800F061B800BF6801002028
:104F2400024B0146186800F00BB800BF680100206E
:104F340002440346934200D1704703F8011BF9E78A
:104F440038B50546002945D051F8043C0C1F002B08
:104F5400B8BFE41800F0C7F81F4A1368104633B905
:104F6400636014602846BDE8384000F0BDB8A34231
:104F74000CD921686218934204BF1A685B686360A5
:104F840004BF521822600460ECE713465A680AB161
:104F9400A242FAD919685818A0420BD120680144DA
:104FA400581882421960DDD1106852685A60014471
:104FB4001960D7E702D90C232B60D3E720682118A6
:104FC4008A4204BF11685268626004BF09182160F4
:104FD4005C60C7E738BD00BFF001002070B5CD1C90
:104FE40025F0030508350C2D38BF0C25002D064689
:104FF40001DBA94203D90C233360002070BD00F00B
:1050040072F8234A1468214691B9224C23681BB9CB
:10501400304600F041F820602946304600F03CF864
:10502400431C26D10C233360304600F05DF8E4E7DE
:105034000B685B1B1AD40B2B0FD90B60CD50CC180B
:10504400304600F051F804F10B00231D20F0070056
:10505400C31A1BD05A42E25070BD8C420DBF636824
:105064004B686360136018BF0C46E9E70C46496857
:10507400CAE7C41C24F00304A04205D0211A304618
:1050840000F00AF80130CDD02560D9E770BD00BF2B
:10509400F0010020F401002038B5064C0023054639
:1050A40008462360FFF7BEFC431C02D1236803B10A
:1050B4002B6038BDF40C002010B5024613460132B3
:1050C4001C78002CFAD1013B11F8012B03F8012FB5
:1050D400002AF9D110BD034611F8012B03F8012B66
:1050E400002AF9D17047704770470000F8B500BF37
:1050F400F8BC08BC9E467047F8B500BFF8BC08BCB5
:045104009E4670470C
:1051080000061016000610166B7535353B6B7534A6
:10511800303B6B753131363B000000006B7537361C
:105128003B6B7536383B6B7535363B006B753734E2
:105138003B6B63682E352C6B63693B6B7537373B6C
:10514800000000006B753132383B6B7538323B6BB1
:10515800753132393B0000006B753132383B6B7565
:105168003132393B000000006B7537393B6B7538BD
:10517800303B6B7538313B6B7538323B00000000B3
:1051880054657374206C61796F75740000000000B9
:1051980000000000010203040607080900000000DF
:1051A8000102030448494420436F6E6669670000A2
:1051B80048494420496E7465726661636500000061
:1051C80053544D6963726F656C656374726F6E6971
:1051D800637300004465787353746D333266344DDD
:1051E8006163726F706164000000000000000000DD
:1051F80000000000000000000000000000000000A7
:105208000000000000000000000000000000000096
:105218000000000000000000000000000000000086
:105228000000000000000000000000000000000076
:105238000000000000000000000000000000000066
:0852480000000000000000005E
:08525000C4AFFF7F0100000064
:04525800B901000890
:04525C0095010008B0
:10526000010000001000000005010906A1018501F0
:10527000050775019508190429E715002501810224
:105280009503750815002564050719002965810037
:10529000C0050C0901A1018502050C150025FF754B
:1052A00001950809B509B609B709B809CD09E20998
:1052B000E909EA8102C00000D7320008B5320008CF
:1052C0009D3100080000000000000000853100084A
:1052D00000000000000000000000000000000000CE
:1052E0006D31000861310008793100089131000802
:1052F00009022200010100E032090400000103005C
:105300000100092111010001224E0007058103055A
:10531000000A000009022200010100E03209040035
:10532000000103010100092111010001224E0007C3
:105330000581030500070000092111010001224E2B
:10534000000000000A06000200000040010000000A
:1053500009022200010100E03209040000010301FA
:105360000100092111010001224A000705810305FE
:10537000000A14000024F4004D4D0008594D0008A7
:10538000094E0008E54D0008D14D0008254E0008E3
:10539000494E0008120100020000004083042B5710
:1053A0000002010203010000040309041A030000C3
:1053B00000000000000000000000000000000000ED
:1053C00000000000000000006C0100200000000050
:1053D0001052000830520008F05100080000000090
:1053E00000000000000000000000000000000000BD
:1053F00000000000000000000000000000000000AD
:10540000000000000000000000000000000000009C
:10541000000000000000000000000000000000008C
:0C54200000000000000000000000000080
:0400000508004E6D34
:00000001FF
